{
  "_format": "hh-sol-artifact-1",
  "contractName": "DappBanX",
  "sourceName": "contracts/DappBnbX.sol",
  "abi": [
    {
      "inputs": [
        {
          "internalType": "uint256",
          "name": "_taxPercent",
          "type": "uint256"
        },
        {
          "internalType": "uint256",
          "name": "_securityFee",
          "type": "uint256"
        }
      ],
      "stateMutability": "nonpayable",
      "type": "constructor"
    },
    {
      "anonymous": false,
      "inputs": [
        {
          "indexed": true,
          "internalType": "address",
          "name": "previousOwner",
          "type": "address"
        },
        {
          "indexed": true,
          "internalType": "address",
          "name": "newOwner",
          "type": "address"
        }
      ],
      "name": "OwnershipTransferred",
      "type": "event"
    },
    {
      "inputs": [
        {
          "internalType": "uint256",
          "name": "aid",
          "type": "uint256"
        },
        {
          "internalType": "string",
          "name": "reviewText",
          "type": "string"
        }
      ],
      "name": "addReview",
      "outputs": [],
      "stateMutability": "nonpayable",
      "type": "function"
    },
    {
      "inputs": [
        {
          "internalType": "uint256",
          "name": "aid",
          "type": "uint256"
        },
        {
          "internalType": "uint256[]",
          "name": "dates",
          "type": "uint256[]"
        }
      ],
      "name": "bookApartment",
      "outputs": [],
      "stateMutability": "payable",
      "type": "function"
    },
    {
      "inputs": [
        {
          "internalType": "uint256",
          "name": "aid",
          "type": "uint256"
        },
        {
          "internalType": "uint256",
          "name": "bookingId",
          "type": "uint256"
        }
      ],
      "name": "checkInApartment",
      "outputs": [],
      "stateMutability": "nonpayable",
      "type": "function"
    },
    {
      "inputs": [
        {
          "internalType": "uint256",
          "name": "aid",
          "type": "uint256"
        },
        {
          "internalType": "uint256",
          "name": "bookingId",
          "type": "uint256"
        }
      ],
      "name": "claimFunds",
      "outputs": [],
      "stateMutability": "nonpayable",
      "type": "function"
    },
    {
      "inputs": [
        {
          "internalType": "string",
          "name": "name",
          "type": "string"
        },
        {
          "internalType": "string",
          "name": "description",
          "type": "string"
        },
        {
          "internalType": "string",
          "name": "location",
          "type": "string"
        },
        {
          "internalType": "string",
          "name": "images",
          "type": "string"
        },
        {
          "internalType": "uint256",
          "name": "rooms",
          "type": "uint256"
        },
        {
          "internalType": "uint256",
          "name": "price",
          "type": "uint256"
        }
      ],
      "name": "createApartment",
      "outputs": [],
      "stateMutability": "nonpayable",
      "type": "function"
    },
    {
      "inputs": [
        {
          "internalType": "uint256",
          "name": "id",
          "type": "uint256"
        }
      ],
      "name": "deleteApartment",
      "outputs": [],
      "stateMutability": "nonpayable",
      "type": "function"
    },
    {
      "inputs": [
        {
          "internalType": "uint256",
          "name": "id",
          "type": "uint256"
        }
      ],
      "name": "getApartment",
      "outputs": [
        {
          "components": [
            {
              "internalType": "uint256",
              "name": "id",
              "type": "uint256"
            },
            {
              "internalType": "string",
              "name": "name",
              "type": "string"
            },
            {
              "internalType": "string",
              "name": "description",
              "type": "string"
            },
            {
              "internalType": "string",
              "name": "location",
              "type": "string"
            },
            {
              "internalType": "string",
              "name": "images",
              "type": "string"
            },
            {
              "internalType": "uint256",
              "name": "rooms",
              "type": "uint256"
            },
            {
              "internalType": "uint256",
              "name": "price",
              "type": "uint256"
            },
            {
              "internalType": "address",
              "name": "owner",
              "type": "address"
            },
            {
              "internalType": "bool",
              "name": "booked",
              "type": "bool"
            },
            {
              "internalType": "bool",
              "name": "deleted",
              "type": "bool"
            },
            {
              "internalType": "uint256",
              "name": "timestamp",
              "type": "uint256"
            }
          ],
          "internalType": "struct DappBanX.ApartmentStruct",
          "name": "",
          "type": "tuple"
        }
      ],
      "stateMutability": "view",
      "type": "function"
    },
    {
      "inputs": [],
      "name": "getApartments",
      "outputs": [
        {
          "components": [
            {
              "internalType": "uint256",
              "name": "id",
              "type": "uint256"
            },
            {
              "internalType": "string",
              "name": "name",
              "type": "string"
            },
            {
              "internalType": "string",
              "name": "description",
              "type": "string"
            },
            {
              "internalType": "string",
              "name": "location",
              "type": "string"
            },
            {
              "internalType": "string",
              "name": "images",
              "type": "string"
            },
            {
              "internalType": "uint256",
              "name": "rooms",
              "type": "uint256"
            },
            {
              "internalType": "uint256",
              "name": "price",
              "type": "uint256"
            },
            {
              "internalType": "address",
              "name": "owner",
              "type": "address"
            },
            {
              "internalType": "bool",
              "name": "booked",
              "type": "bool"
            },
            {
              "internalType": "bool",
              "name": "deleted",
              "type": "bool"
            },
            {
              "internalType": "uint256",
              "name": "timestamp",
              "type": "uint256"
            }
          ],
          "internalType": "struct DappBanX.ApartmentStruct[]",
          "name": "Apartments",
          "type": "tuple[]"
        }
      ],
      "stateMutability": "view",
      "type": "function"
    },
    {
      "inputs": [
        {
          "internalType": "uint256",
          "name": "aid",
          "type": "uint256"
        },
        {
          "internalType": "uint256",
          "name": "bookingId",
          "type": "uint256"
        }
      ],
      "name": "getBooking",
      "outputs": [
        {
          "components": [
            {
              "internalType": "uint256",
              "name": "id",
              "type": "uint256"
            },
            {
              "internalType": "uint256",
              "name": "aid",
              "type": "uint256"
            },
            {
              "internalType": "address",
              "name": "tenant",
              "type": "address"
            },
            {
              "internalType": "uint256",
              "name": "date",
              "type": "uint256"
            },
            {
              "internalType": "uint256",
              "name": "price",
              "type": "uint256"
            },
            {
              "internalType": "bool",
              "name": "checked",
              "type": "bool"
            },
            {
              "internalType": "bool",
              "name": "cancelled",
              "type": "bool"
            }
          ],
          "internalType": "struct DappBanX.BookingStruct",
          "name": "",
          "type": "tuple"
        }
      ],
      "stateMutability": "view",
      "type": "function"
    },
    {
      "inputs": [
        {
          "internalType": "uint256",
          "name": "aid",
          "type": "uint256"
        }
      ],
      "name": "getBookings",
      "outputs": [
        {
          "components": [
            {
              "internalType": "uint256",
              "name": "id",
              "type": "uint256"
            },
            {
              "internalType": "uint256",
              "name": "aid",
              "type": "uint256"
            },
            {
              "internalType": "address",
              "name": "tenant",
              "type": "address"
            },
            {
              "internalType": "uint256",
              "name": "date",
              "type": "uint256"
            },
            {
              "internalType": "uint256",
              "name": "price",
              "type": "uint256"
            },
            {
              "internalType": "bool",
              "name": "checked",
              "type": "bool"
            },
            {
              "internalType": "bool",
              "name": "cancelled",
              "type": "bool"
            }
          ],
          "internalType": "struct DappBanX.BookingStruct[]",
          "name": "",
          "type": "tuple[]"
        }
      ],
      "stateMutability": "view",
      "type": "function"
    },
    {
      "inputs": [
        {
          "internalType": "uint256",
          "name": "aid",
          "type": "uint256"
        }
      ],
      "name": "getQualifiedReviewers",
      "outputs": [
        {
          "internalType": "address[]",
          "name": "Tenants",
          "type": "address[]"
        }
      ],
      "stateMutability": "view",
      "type": "function"
    },
    {
      "inputs": [
        {
          "internalType": "uint256",
          "name": "aid",
          "type": "uint256"
        }
      ],
      "name": "getReviews",
      "outputs": [
        {
          "components": [
            {
              "internalType": "uint256",
              "name": "id",
              "type": "uint256"
            },
            {
              "internalType": "uint256",
              "name": "aid",
              "type": "uint256"
            },
            {
              "internalType": "string",
              "name": "reviewText",
              "type": "string"
            },
            {
              "internalType": "uint256",
              "name": "timestamp",
              "type": "uint256"
            },
            {
              "internalType": "address",
              "name": "owner",
              "type": "address"
            }
          ],
          "internalType": "struct DappBanX.ReviewStruct[]",
          "name": "",
          "type": "tuple[]"
        }
      ],
      "stateMutability": "view",
      "type": "function"
    },
    {
      "inputs": [
        {
          "internalType": "uint256",
          "name": "aid",
          "type": "uint256"
        }
      ],
      "name": "getUnavailableDates",
      "outputs": [
        {
          "internalType": "uint256[]",
          "name": "",
          "type": "uint256[]"
        }
      ],
      "stateMutability": "view",
      "type": "function"
    },
    {
      "inputs": [],
      "name": "owner",
      "outputs": [
        {
          "internalType": "address",
          "name": "",
          "type": "address"
        }
      ],
      "stateMutability": "view",
      "type": "function"
    },
    {
      "inputs": [
        {
          "internalType": "uint256",
          "name": "aid",
          "type": "uint256"
        },
        {
          "internalType": "uint256",
          "name": "bookingId",
          "type": "uint256"
        }
      ],
      "name": "refundBooking",
      "outputs": [],
      "stateMutability": "nonpayable",
      "type": "function"
    },
    {
      "inputs": [],
      "name": "renounceOwnership",
      "outputs": [],
      "stateMutability": "nonpayable",
      "type": "function"
    },
    {
      "inputs": [],
      "name": "securityFee",
      "outputs": [
        {
          "internalType": "uint256",
          "name": "",
          "type": "uint256"
        }
      ],
      "stateMutability": "view",
      "type": "function"
    },
    {
      "inputs": [],
      "name": "taxPercent",
      "outputs": [
        {
          "internalType": "uint256",
          "name": "",
          "type": "uint256"
        }
      ],
      "stateMutability": "view",
      "type": "function"
    },
    {
      "inputs": [
        {
          "internalType": "uint256",
          "name": "apartmentId",
          "type": "uint256"
        }
      ],
      "name": "tenantBooked",
      "outputs": [
        {
          "internalType": "bool",
          "name": "",
          "type": "bool"
        }
      ],
      "stateMutability": "view",
      "type": "function"
    },
    {
      "inputs": [
        {
          "internalType": "address",
          "name": "newOwner",
          "type": "address"
        }
      ],
      "name": "transferOwnership",
      "outputs": [],
      "stateMutability": "nonpayable",
      "type": "function"
    },
    {
      "inputs": [
        {
          "internalType": "uint256",
          "name": "id",
          "type": "uint256"
        },
        {
          "internalType": "string",
          "name": "name",
          "type": "string"
        },
        {
          "internalType": "string",
          "name": "description",
          "type": "string"
        },
        {
          "internalType": "string",
          "name": "location",
          "type": "string"
        },
        {
          "internalType": "string",
          "name": "images",
          "type": "string"
        },
        {
          "internalType": "uint256",
          "name": "rooms",
          "type": "uint256"
        },
        {
          "internalType": "uint256",
          "name": "price",
          "type": "uint256"
        }
      ],
      "name": "updateApartment",
      "outputs": [],
      "stateMutability": "nonpayable",
      "type": "function"
    }
  ],
  "bytecode": "0x60806040523480156200001157600080fd5b50604051620033e5380380620033e58339810160408190526200003491620000a2565b6200003f3362000052565b60018055600491909155600355620000c7565b600080546001600160a01b038381166001600160a01b0319831681178455604051919092169283917f8be0079c531659141344cd1fd0a4f28419497f9722a3daafe3b4186f6b6457e09190a35050565b60008060408385031215620000b657600080fd5b505080516020909101519092909150565b61330e80620000d76000396000f3fe60806040526004361061012a5760003560e01c80638da5cb5b116100ab578063c788d6de1161006f578063c788d6de1461037c578063d68e13021461039c578063db2f80b7146103b2578063df6e0222146103df578063f2fde38b146103f2578063f40109951461041257600080fd5b80638da5cb5b1461028d5780639d4a2255146102b55780639f31a2be146102e2578063b1c980991461032d578063c4452e061461034f57600080fd5b80635bb0c5d6116100f25780635bb0c5d6146101f457806367626e5d14610214578063715018a6146102345780637541f41c1461024957806378419f611461026d57600080fd5b8063010b58ee1461012f5780630bb9ce331461015157806327c71c7314610187578063455b3070146101a757806355c3fbfb146101d4575b600080fd5b34801561013b57600080fd5b5061014f61014a3660046129a2565b61043f565b005b34801561015d57600080fd5b5061017161016c3660046129c4565b6105a5565b60405161017e91906129dd565b60405180910390f35b34801561019357600080fd5b5061014f6101a2366004612ae1565b61074e565b3480156101b357600080fd5b506101c76101c23660046129a2565b610dbb565b60405161017e9190612bf9565b3480156101e057600080fd5b5061014f6101ef3660046129c4565b610e5f565b34801561020057600080fd5b5061014f61020f366004612c07565b610f4d565b34801561022057600080fd5b5061014f61022f3660046129a2565b611158565b34801561024057600080fd5b5061014f61150d565b34801561025557600080fd5b5061025f60045481565b60405190815260200161017e565b34801561027957600080fd5b5061014f6102883660046129a2565b611521565b34801561029957600080fd5b506000546040516001600160a01b03909116815260200161017e565b3480156102c157600080fd5b506102d56102d03660046129c4565b611726565b60405161017e9190612c94565b3480156102ee57600080fd5b5061031d6102fd3660046129c4565b336000908152600b60209081526040808320938352929052205460ff1690565b604051901515815260200161017e565b34801561033957600080fd5b50610342611861565b60405161017e9190612dff565b34801561035b57600080fd5b5061036f61036a3660046129c4565b611c3c565b60405161017e9190612e61565b34801561038857600080fd5b5061014f610397366004612e7b565b611f10565b3480156103a857600080fd5b5061025f60035481565b3480156103be57600080fd5b506103d26103cd3660046129c4565b612235565b60405161017e9190612f3a565b61014f6103ed366004612f72565b612297565b3480156103fe57600080fd5b5061014f61040d366004613024565b612597565b34801561041e57600080fd5b5061043261042d3660046129c4565b612610565b60405161017e919061304d565b6000828152600560205260409020600701546001600160a01b031633146104a35760405162461bcd60e51b8152602060048201526013602482015272556e617574686f72697a656420656e7469747960681b60448201526064015b60405180910390fd5b60008281526006602052604090208054829081106104c3576104c361308f565b600091825260209091206005600690920201015460ff16156104f75760405162461bcd60e51b815260040161049a906130a5565b60008281526006602052604081208054839081106105175761051761308f565b9060005260206000209060060201600401549050600060646004548361053d9190613102565b6105479190613119565b600085815260056020526040902060070154909150610578906001600160a01b0316610573838561313b565b6126cb565b61059361058d6000546001600160a01b031690565b826126cb565b61059f336003546126cb565b50505050565b60606000805b60008481526006602052604090205481101561061d5760008481526006602052604090208054829081106105e1576105e161308f565b600091825260209091206005600690920201015460ff161561060b57816106078161314e565b9250505b806106158161314e565b9150506105ab565b508067ffffffffffffffff81111561063757610637612a2a565b604051908082528060200260200182016040528015610660578160200160208202803683370190505b5091506000805b60008581526006602052604090205481101561074657600085815260066020526040902080548290811061069d5761069d61308f565b600091825260209091206005600690920201015460ff16156107345760008581526006602052604090208054829081106106d9576106d961308f565b60009182526020909120600260069092020101546001600160a01b031684836107018161314e565b9450815181106107135761071361308f565b60200260200101906001600160a01b031690816001600160a01b0316815250505b8061073e8161314e565b915050610667565b505050919050565b60008781526008602052604090205460ff1615156001146107a75760405162461bcd60e51b8152602060048201526013602482015272105c185c9d1b595b9d081b9bdd08199bdd5b99606a1b604482015260640161049a565b6000878152600560205260409020600701546001600160a01b0316331461081b5760405162461bcd60e51b815260206004820152602260248201527f556e617574686f72697a656420706572736f6e6e656c2c206f776e6572206f6e6044820152616c7960f01b606482015260840161049a565b60008651116108635760405162461bcd60e51b81526020600482015260146024820152734e616d652063616e6e6f7420626520656d70747960601b604482015260640161049a565b60008551116108b45760405162461bcd60e51b815260206004820152601b60248201527f4465736372697074696f6e2063616e6e6f7420626520656d7074790000000000604482015260640161049a565b60008451116109005760405162461bcd60e51b81526020600482015260186024820152774c6f636174696f6e2063616e6e6f7420626520656d70747960401b604482015260640161049a565b600083511161094a5760405162461bcd60e51b8152602060048201526016602482015275496d616765732063616e6e6f7420626520656d70747960501b604482015260640161049a565b600082116109915760405162461bcd60e51b8152602060048201526014602482015273526f6f6d732063616e6e6f74206265207a65726f60601b604482015260640161049a565b600081116109d85760405162461bcd60e51b815260206004820152601460248201527350726963652063616e6e6f74206265207a65726f60601b604482015260640161049a565b6000600560008981526020019081526020016000206040518061016001604052908160008201548152602001600182018054610a1390613167565b80601f0160208091040260200160405190810160405280929190818152602001828054610a3f90613167565b8015610a8c5780601f10610a6157610100808354040283529160200191610a8c565b820191906000526020600020905b815481529060010190602001808311610a6f57829003601f168201915b50505050508152602001600282018054610aa590613167565b80601f0160208091040260200160405190810160405280929190818152602001828054610ad190613167565b8015610b1e5780601f10610af357610100808354040283529160200191610b1e565b820191906000526020600020905b815481529060010190602001808311610b0157829003601f168201915b50505050508152602001600382018054610b3790613167565b80601f0160208091040260200160405190810160405280929190818152602001828054610b6390613167565b8015610bb05780601f10610b8557610100808354040283529160200191610bb0565b820191906000526020600020905b815481529060010190602001808311610b9357829003601f168201915b50505050508152602001600482018054610bc990613167565b80601f0160208091040260200160405190810160405280929190818152602001828054610bf590613167565b8015610c425780601f10610c1757610100808354040283529160200191610c42565b820191906000526020600020905b815481529060010190602001808311610c2557829003601f168201915b5050509183525050600582810154602080840191909152600684015460408085019190915260078501546001600160a01b03811660608087019190915260ff600160a01b830481161515608080890191909152600160a81b90930416151560a08088019190915260089097015460c0968701528784018f81528884018f90529088018d90529087018b905294860189905292850187905260008d81529190522082518155905191925082916001820190610cfc90826131ef565b5060408201516002820190610d1190826131ef565b5060608201516003820190610d2690826131ef565b5060808201516004820190610d3b90826131ef565b5060a0820151600582015560c0820151600682015560e08201516007820180546101008501516101208601511515600160a81b0260ff60a81b19911515600160a01b026001600160a81b03199093166001600160a01b03909516949094179190911716919091179055610140909101516008909101555050505050505050565b610dc36128f1565b6000838152600660205260409020805483908110610de357610de361308f565b60009182526020918290206040805160e08101825260069093029091018054835260018101549383019390935260028301546001600160a01b031690820152600382015460608201526004820154608082015260059091015460ff808216151560a084015261010090910416151560c082015290505b92915050565b60008181526008602052604090205460ff161515600114610eb85760405162461bcd60e51b8152602060048201526013602482015272105c185c9d1b595b9d081b9bdd08199bdd5b99606a1b604482015260640161049a565b6000818152600560205260409020600701546001600160a01b03163314610f175760405162461bcd60e51b8152602060048201526013602482015272556e617574686f72697a656420656e7469747960681b604482015260640161049a565b6000908152600860209081526040808320805460ff1916905560059091529020600701805460ff60a81b1916600160a81b179055565b60008281526008602052604090205460ff16610fab5760405162461bcd60e51b815260206004820152601760248201527f41706172746d656e74206e6f7420617661696c61626c65000000000000000000604482015260640161049a565b336000908152600b6020908152604080832085845290915290205460ff166110155760405162461bcd60e51b815260206004820152601860248201527f426f6f6b206669727374206265666f7265207265766965770000000000000000604482015260640161049a565b60008151116110665760405162461bcd60e51b815260206004820152601b60248201527f52657669657720746578742063616e6e6f7420626520656d7074790000000000604482015260640161049a565b6110a16040518060a001604052806000815260200160008152602001606081526020016000815260200160006001600160a01b031681525090565b60208082018490526000848152600790915260409081902054825281018290526110c961272b565b606082015233608082015260008381526007602090815260408083208054600181810183559185529383902085516005909502019384559184015191830191909155820151829190600282019061112090826131ef565b5060608201516003820155608090910151600490910180546001600160a01b0319166001600160a01b03909216919091179055505050565b61116061274a565b60008281526006602052604081208054839081106111805761118061308f565b60009182526020918290206040805160e08101825260069093029091018054835260018101549383019390935260028301546001600160a01b031690820152600382015460608201526004820154608082015260059091015460ff80821615801560a085015261010090920416151560c08301529091506112135760405162461bcd60e51b815260040161049a906130a5565b6000838152600a602090815260408083206060850151845290915290205460ff166112805760405162461bcd60e51b815260206004820152601a60248201527f446964206e6f7420626f6f6b206f6e2074686973206461746521000000000000604482015260640161049a565b6000546001600160a01b0316331461135b5780604001516001600160a01b0316336001600160a01b0316146112ee5760405162461bcd60e51b8152602060048201526014602482015273556e617574686f72697a65642074656e616e742160601b604482015260640161049a565b6112f661272b565b81606001511161135b5760405162461bcd60e51b815260206004820152602a60248201527f43616e206e6f206c6f6e67657220726566756e642c20626f6f6b696e672064616044820152691d19481cdd185c9d195960b21b606482015260840161049a565b60008381526006602052604090208054600191908490811061137f5761137f61308f565b6000918252602080832060056006909302019190910180549315156101000261ff001990941693909317909255848152600a82526040808220606085015183528352808220805460ff191690558582526009909252908120546113e49060019061313b565b600085815260096020526040812080549293509091839081106114095761140961308f565b906000526020600020015490508060096000878152602001908152602001600020858154811061143b5761143b61308f565b90600052602060002001819055506009600086815260200190815260200160002080548061146b5761146b6132af565b600190038181906000526020600020016000905590556000606460035485608001516114979190613102565b6114a19190613119565b905060006114b0600283613119565b6000888152600560205260409020600701549091506114d8906001600160a01b0316826126cb565b6114ed61058d6000546001600160a01b031690565b6114fb3386608001516126cb565b505050505061150960018055565b5050565b6115156127a3565b61151f60006127fd565b565b60008281526006602052604081208054839081106115415761154161308f565b60009182526020918290206040805160e08101825260069093029091018054835260018101549383019390935260028301546001600160a01b0316908201819052600383015460608301526004830154608083015260059092015460ff808216151560a084015261010090910416151560c0820152915033146115fd5760405162461bcd60e51b8152602060048201526014602482015273556e617574686f72697a65642074656e616e742160601b604482015260640161049a565b8060a001511561161f5760405162461bcd60e51b815260040161049a906130a5565b6000838152600660205260409020805460019190849081106116435761164361308f565b60009182526020822060069190910201600501805460ff191692151592909217909155600454608083015160649161167a91613102565b6116849190613119565b905060006064600354846080015161169c9190613102565b6116a69190613119565b336000908152600b602090815260408083208984528252808320805460ff19166001179055600590915290206007015460808501519192506116fa916001600160a01b03919091169061057390859061313b565b61171561170f6000546001600160a01b031690565b836126cb565b61171f33826126cb565b5050505050565b606060076000838152602001908152602001600020805480602002602001604051908101604052809291908181526020016000905b8282101561185657838290600052602060002090600502016040518060a001604052908160008201548152602001600182015481526020016002820180546117a290613167565b80601f01602080910402602001604051908101604052809291908181526020018280546117ce90613167565b801561181b5780601f106117f05761010080835404028352916020019161181b565b820191906000526020600020905b8154815290600101906020018083116117fe57829003601f168201915b505050918352505060038201546020808301919091526004909201546001600160a01b0316604090910152908252600192909201910161175b565b505050509050919050565b6060600060015b60025481116118b157600081815260056020526040902060070154600160a81b900460ff1661189f578161189b8161314e565b9250505b806118a98161314e565b915050611868565b508067ffffffffffffffff8111156118cb576118cb612a2a565b60405190808252806020026020018201604052801561190457816020015b6118f161293b565b8152602001906001900390816118e95790505b509150600060015b6002548111611c3657600081815260056020526040902060070154600160a81b900460ff16611c245760056000828152602001908152602001600020604051806101600160405290816000820154815260200160018201805461196e90613167565b80601f016020809104026020016040519081016040528092919081815260200182805461199a90613167565b80156119e75780601f106119bc576101008083540402835291602001916119e7565b820191906000526020600020905b8154815290600101906020018083116119ca57829003601f168201915b50505050508152602001600282018054611a0090613167565b80601f0160208091040260200160405190810160405280929190818152602001828054611a2c90613167565b8015611a795780601f10611a4e57610100808354040283529160200191611a79565b820191906000526020600020905b815481529060010190602001808311611a5c57829003601f168201915b50505050508152602001600382018054611a9290613167565b80601f0160208091040260200160405190810160405280929190818152602001828054611abe90613167565b8015611b0b5780601f10611ae057610100808354040283529160200191611b0b565b820191906000526020600020905b815481529060010190602001808311611aee57829003601f168201915b50505050508152602001600482018054611b2490613167565b80601f0160208091040260200160405190810160405280929190818152602001828054611b5090613167565b8015611b9d5780601f10611b7257610100808354040283529160200191611b9d565b820191906000526020600020905b815481529060010190602001808311611b8057829003601f168201915b5050509183525050600582015460208201526006820154604082015260078201546001600160a01b038116606083015260ff600160a01b8204811615156080840152600160a81b90910416151560a082015260089091015460c0909101528483611c068161314e565b945081518110611c1857611c1861308f565b60200260200101819052505b80611c2e8161314e565b91505061190c565b50505090565b611c4461293b565b600560008381526020019081526020016000206040518061016001604052908160008201548152602001600182018054611c7d90613167565b80601f0160208091040260200160405190810160405280929190818152602001828054611ca990613167565b8015611cf65780601f10611ccb57610100808354040283529160200191611cf6565b820191906000526020600020905b815481529060010190602001808311611cd957829003601f168201915b50505050508152602001600282018054611d0f90613167565b80601f0160208091040260200160405190810160405280929190818152602001828054611d3b90613167565b8015611d885780601f10611d5d57610100808354040283529160200191611d88565b820191906000526020600020905b815481529060010190602001808311611d6b57829003601f168201915b50505050508152602001600382018054611da190613167565b80601f0160208091040260200160405190810160405280929190818152602001828054611dcd90613167565b8015611e1a5780601f10611def57610100808354040283529160200191611e1a565b820191906000526020600020905b815481529060010190602001808311611dfd57829003601f168201915b50505050508152602001600482018054611e3390613167565b80601f0160208091040260200160405190810160405280929190818152602001828054611e5f90613167565b8015611eac5780601f10611e8157610100808354040283529160200191611eac565b820191906000526020600020905b815481529060010190602001808311611e8f57829003601f168201915b5050509183525050600582015460208201526006820154604082015260078201546001600160a01b038116606083015260ff600160a01b8204811615156080840152600160a81b90910416151560a082015260089091015460c09091015292915050565b6000865111611f585760405162461bcd60e51b81526020600482015260146024820152734e616d652063616e6e6f7420626520656d70747960601b604482015260640161049a565b6000855111611fa95760405162461bcd60e51b815260206004820152601b60248201527f4465736372697074696f6e2063616e6e6f7420626520656d7074790000000000604482015260640161049a565b6000845111611ff55760405162461bcd60e51b81526020600482015260186024820152774c6f636174696f6e2063616e6e6f7420626520656d70747960401b604482015260640161049a565b600083511161203f5760405162461bcd60e51b8152602060048201526016602482015275496d616765732063616e6e6f7420626520656d70747960501b604482015260640161049a565b600082116120865760405162461bcd60e51b8152602060048201526014602482015273526f6f6d732063616e6e6f74206265207a65726f60601b604482015260640161049a565b600081116120cd5760405162461bcd60e51b815260206004820152601460248201527350726963652063616e6e6f74206265207a65726f60601b604482015260640161049a565b6120db600280546001019055565b6120e361293b565b60025481526020810187905260408101869052606081018590526080810184905260a0810183905260c081018290523360e082015261212061272b565b61014082015280516000908152600860205260408120805460ff19166001179055819060059061214f60025490565b81526020808201929092526040016000208251815590820151600182019061217790826131ef565b506040820151600282019061218c90826131ef565b50606082015160038201906121a190826131ef565b50608082015160048201906121b690826131ef565b5060a0820151600582015560c0820151600682015560e08201516007820180546101008501516101208601511515600160a81b0260ff60a81b19911515600160a01b026001600160a81b03199093166001600160a01b039095169490941791909117169190911790556101409091015160089091015550505050505050565b60008181526009602090815260409182902080548351818402810184019094528084526060939283018282801561228b57602002820191906000526020600020905b815481526020019060010190808311612277575b50505050509050919050565b60008281526008602052604090205460ff166122ec5760405162461bcd60e51b815260206004820152601460248201527341706172746d656e74206e6f7420666f756e642160601b604482015260640161049a565b60035481516000848152600560205260409020600601546064929161231091613102565b61231a9190613102565b6123249190613119565b81516000848152600560205260409020600601546123429190613102565b61234c91906132c5565b3410156123905760405162461bcd60e51b8152602060048201526012602482015271496e73756666696369656e742066756e642160701b604482015260640161049a565b61239a828261284d565b6123e65760405162461bcd60e51b815260206004820152601e60248201527f426f6f6b6564206461746520666f756e6420616d6f6e67206461746573210000604482015260640161049a565b60005b8151811015612592576123fa6128f1565b6020808201859052600085815260069091526040908190205482523390820152825183908390811061242e5761242e61308f565b60209081029190910181015160608301908152600086815260058084526040808320600690810154608088019081528a85528187528285208054600181810183559187528887208a51919094029093019283558888015183820155838901516002840180546001600160a01b039092166001600160a01b03199092169190911790559551600383015551600482015560a08701519201805460c088015115156101000261ff00199415159490941661ffff199091161792909217909155878252600a90935291822085519192909186908690811061250e5761250e61308f565b6020026020010151815260200190815260200160002060006101000a81548160ff021916908315150217905550600960008581526020019081526020016000208383815181106125605761256061308f565b60209081029190910181015182546001810184556000938452919092200155508061258a8161314e565b9150506123e9565b505050565b61259f6127a3565b6001600160a01b0381166126045760405162461bcd60e51b815260206004820152602660248201527f4f776e61626c653a206e6577206f776e657220697320746865207a65726f206160448201526564647265737360d01b606482015260840161049a565b61260d816127fd565b50565b606060066000838152602001908152602001600020805480602002602001604051908101604052809291908181526020016000905b828210156118565760008481526020908190206040805160e08101825260068602909201805483526001808201548486015260028201546001600160a01b03169284019290925260038101546060840152600481015460808401526005015460ff808216151560a085015261010090910416151560c08301529083529092019101612645565b6000826001600160a01b03168260405160006040518083038185875af1925050503d8060008114612718576040519150601f19603f3d011682016040523d82523d6000602084013e61271d565b606091505b505090508061259257600080fd5b6000612739426103e8613102565b612745906103e86132c5565b905090565b60026001540361279c5760405162461bcd60e51b815260206004820152601f60248201527f5265656e7472616e637947756172643a207265656e7472616e742063616c6c00604482015260640161049a565b6002600155565b6000546001600160a01b0316331461151f5760405162461bcd60e51b815260206004820181905260248201527f4f776e61626c653a2063616c6c6572206973206e6f7420746865206f776e6572604482015260640161049a565b600080546001600160a01b038381166001600160a01b0319831681178455604051919092169283917f8be0079c531659141344cd1fd0a4f28419497f9722a3daafe3b4186f6b6457e09190a35050565b60006001815b83518110156128e95760005b6000868152600960205260409020548110156128d65760008681526009602052604090208054829081106128955761289561308f565b90600052602060002001548583815181106128b2576128b261308f565b6020026020010151036128c457600092505b806128ce8161314e565b91505061285f565b50806128e18161314e565b915050612853565b509392505050565b6040518060e00160405280600081526020016000815260200160006001600160a01b0316815260200160008152602001600081526020016000151581526020016000151581525090565b6040518061016001604052806000815260200160608152602001606081526020016060815260200160608152602001600081526020016000815260200160006001600160a01b03168152602001600015158152602001600015158152602001600081525090565b600080604083850312156129b557600080fd5b50508035926020909101359150565b6000602082840312156129d657600080fd5b5035919050565b6020808252825182820181905260009190848201906040850190845b81811015612a1e5783516001600160a01b0316835292840192918401916001016129f9565b50909695505050505050565b634e487b7160e01b600052604160045260246000fd5b604051601f8201601f1916810167ffffffffffffffff81118282101715612a6957612a69612a2a565b604052919050565b600082601f830112612a8257600080fd5b813567ffffffffffffffff811115612a9c57612a9c612a2a565b612aaf601f8201601f1916602001612a40565b818152846020838601011115612ac457600080fd5b816020850160208301376000918101602001919091529392505050565b600080600080600080600060e0888a031215612afc57600080fd5b87359650602088013567ffffffffffffffff80821115612b1b57600080fd5b612b278b838c01612a71565b975060408a0135915080821115612b3d57600080fd5b612b498b838c01612a71565b965060608a0135915080821115612b5f57600080fd5b612b6b8b838c01612a71565b955060808a0135915080821115612b8157600080fd5b50612b8e8a828b01612a71565b93505060a0880135915060c0880135905092959891949750929550565b80518252602080820151908301526040808201516001600160a01b031690830152606080820151908301526080808201519083015260a08082015115159083015260c0908101511515910152565b60e08101610e598284612bab565b60008060408385031215612c1a57600080fd5b82359150602083013567ffffffffffffffff811115612c3857600080fd5b612c4485828601612a71565b9150509250929050565b6000815180845260005b81811015612c7457602081850181015186830182015201612c58565b506000602082860101526020601f19601f83011685010191505092915050565b60006020808301818452808551808352604092508286019150828160051b87010184880160005b83811015612d2457603f19898403018552815160a0815185528882015189860152878201518189870152612cf182870182612c4e565b606084810151908801526080938401516001600160a01b0316939096019290925250509386019390860190600101612cbb565b509098975050505050505050565b6000610160825184526020830151816020860152612d5282860182612c4e565b91505060408301518482036040860152612d6c8282612c4e565b91505060608301518482036060860152612d868282612c4e565b91505060808301518482036080860152612da08282612c4e565b91505060a083015160a085015260c083015160c085015260e0830151612dd160e08601826001600160a01b03169052565b5061010083810151151590850152610120808401511515908501526101409283015192909301919091525090565b6000602080830181845280855180835260408601915060408160051b870101925083870160005b82811015612e5457603f19888603018452612e42858351612d32565b94509285019290850190600101612e26565b5092979650505050505050565b602081526000612e746020830184612d32565b9392505050565b60008060008060008060c08789031215612e9457600080fd5b863567ffffffffffffffff80821115612eac57600080fd5b612eb88a838b01612a71565b97506020890135915080821115612ece57600080fd5b612eda8a838b01612a71565b96506040890135915080821115612ef057600080fd5b612efc8a838b01612a71565b95506060890135915080821115612f1257600080fd5b50612f1f89828a01612a71565b9350506080870135915060a087013590509295509295509295565b6020808252825182820181905260009190848201906040850190845b81811015612a1e57835183529284019291840191600101612f56565b60008060408385031215612f8557600080fd5b8235915060208084013567ffffffffffffffff80821115612fa557600080fd5b818601915086601f830112612fb957600080fd5b813581811115612fcb57612fcb612a2a565b8060051b9150612fdc848301612a40565b8181529183018401918481019089841115612ff657600080fd5b938501935b8385101561301457843582529385019390850190612ffb565b8096505050505050509250929050565b60006020828403121561303657600080fd5b81356001600160a01b0381168114612e7457600080fd5b6020808252825182820181905260009190848201906040850190845b81811015612a1e5761307c838551612bab565b9284019260e09290920191600101613069565b634e487b7160e01b600052603260045260246000fd5b60208082526027908201527f41706172746d656e7420616c726561647920636865636b6564206f6e207468696040820152667320646174652160c81b606082015260800190565b634e487b7160e01b600052601160045260246000fd5b8082028115828204841417610e5957610e596130ec565b60008261313657634e487b7160e01b600052601260045260246000fd5b500490565b81810381811115610e5957610e596130ec565b600060018201613160576131606130ec565b5060010190565b600181811c9082168061317b57607f821691505b60208210810361319b57634e487b7160e01b600052602260045260246000fd5b50919050565b601f82111561259257600081815260208120601f850160051c810160208610156131c85750805b601f850160051c820191505b818110156131e7578281556001016131d4565b505050505050565b815167ffffffffffffffff81111561320957613209612a2a565b61321d816132178454613167565b846131a1565b602080601f831160018114613252576000841561323a5750858301515b600019600386901b1c1916600185901b1785556131e7565b600085815260208120601f198616915b8281101561328157888601518255948401946001909101908401613262565b508582101561329f5787850151600019600388901b60f8161c191681555b5050505050600190811b01905550565b634e487b7160e01b600052603160045260246000fd5b80820180821115610e5957610e596130ec56fea26469706673582212201e93c07a50b83810a1b2da0ba88508d36b163edc812e0bc6b6857897b18df36f64736f6c63430008130033",
  "linkReferences": {},
  "deployedLinkReferences": {}
}