{
  "_format": "hh-sol-artifact-1",
  "contractName": "DappBanX",
  "sourceName": "contracts/DappBnbX.sol",
  "abi": [
    {
      "inputs": [
        {
          "internalType": "uint256",
          "name": "_taxPercent",
          "type": "uint256"
        },
        {
          "internalType": "uint256",
          "name": "_securityFee",
          "type": "uint256"
        }
      ],
      "stateMutability": "nonpayable",
      "type": "constructor"
    },
    {
      "anonymous": false,
      "inputs": [
        {
          "indexed": true,
          "internalType": "address",
          "name": "previousOwner",
          "type": "address"
        },
        {
          "indexed": true,
          "internalType": "address",
          "name": "newOwner",
          "type": "address"
        }
      ],
      "name": "OwnershipTransferred",
      "type": "event"
    },
    {
      "inputs": [
        {
          "internalType": "uint256",
          "name": "aid",
          "type": "uint256"
        },
        {
          "internalType": "string",
          "name": "reviewText",
          "type": "string"
        }
      ],
      "name": "addReview",
      "outputs": [],
      "stateMutability": "nonpayable",
      "type": "function"
    },
    {
      "inputs": [
        {
          "internalType": "uint256",
          "name": "aid",
          "type": "uint256"
        },
        {
          "internalType": "uint256[]",
          "name": "dates",
          "type": "uint256[]"
        }
      ],
      "name": "bookApartment",
      "outputs": [],
      "stateMutability": "payable",
      "type": "function"
    },
    {
      "inputs": [
        {
          "internalType": "uint256",
          "name": "aid",
          "type": "uint256"
        },
        {
          "internalType": "uint256",
          "name": "bookingId",
          "type": "uint256"
        }
      ],
      "name": "checkInApartment",
      "outputs": [],
      "stateMutability": "nonpayable",
      "type": "function"
    },
    {
      "inputs": [
        {
          "internalType": "uint256",
          "name": "aid",
          "type": "uint256"
        },
        {
          "internalType": "uint256",
          "name": "bookingId",
          "type": "uint256"
        }
      ],
      "name": "claimFunds",
      "outputs": [],
      "stateMutability": "nonpayable",
      "type": "function"
    },
    {
      "inputs": [
        {
          "internalType": "string",
          "name": "name",
          "type": "string"
        },
        {
          "internalType": "string",
          "name": "description",
          "type": "string"
        },
        {
          "internalType": "string",
          "name": "location",
          "type": "string"
        },
        {
          "internalType": "string",
          "name": "images",
          "type": "string"
        },
        {
          "internalType": "uint256",
          "name": "rooms",
          "type": "uint256"
        },
        {
          "internalType": "uint256",
          "name": "price",
          "type": "uint256"
        }
      ],
      "name": "createApartment",
      "outputs": [],
      "stateMutability": "nonpayable",
      "type": "function"
    },
    {
      "inputs": [
        {
          "internalType": "uint256",
          "name": "id",
          "type": "uint256"
        }
      ],
      "name": "deleteApartment",
      "outputs": [],
      "stateMutability": "nonpayable",
      "type": "function"
    },
    {
      "inputs": [
        {
          "internalType": "uint256",
          "name": "id",
          "type": "uint256"
        }
      ],
      "name": "getApartment",
      "outputs": [
        {
          "components": [
            {
              "internalType": "uint256",
              "name": "id",
              "type": "uint256"
            },
            {
              "internalType": "string",
              "name": "name",
              "type": "string"
            },
            {
              "internalType": "string",
              "name": "description",
              "type": "string"
            },
            {
              "internalType": "string",
              "name": "location",
              "type": "string"
            },
            {
              "internalType": "string",
              "name": "images",
              "type": "string"
            },
            {
              "internalType": "uint256",
              "name": "rooms",
              "type": "uint256"
            },
            {
              "internalType": "uint256",
              "name": "price",
              "type": "uint256"
            },
            {
              "internalType": "address",
              "name": "owner",
              "type": "address"
            },
            {
              "internalType": "bool",
              "name": "booked",
              "type": "bool"
            },
            {
              "internalType": "bool",
              "name": "deleted",
              "type": "bool"
            },
            {
              "internalType": "uint256",
              "name": "timestamp",
              "type": "uint256"
            }
          ],
          "internalType": "struct DappBanX.ApartmentStruct",
          "name": "",
          "type": "tuple"
        }
      ],
      "stateMutability": "view",
      "type": "function"
    },
    {
      "inputs": [],
      "name": "getApartments",
      "outputs": [
        {
          "components": [
            {
              "internalType": "uint256",
              "name": "id",
              "type": "uint256"
            },
            {
              "internalType": "string",
              "name": "name",
              "type": "string"
            },
            {
              "internalType": "string",
              "name": "description",
              "type": "string"
            },
            {
              "internalType": "string",
              "name": "location",
              "type": "string"
            },
            {
              "internalType": "string",
              "name": "images",
              "type": "string"
            },
            {
              "internalType": "uint256",
              "name": "rooms",
              "type": "uint256"
            },
            {
              "internalType": "uint256",
              "name": "price",
              "type": "uint256"
            },
            {
              "internalType": "address",
              "name": "owner",
              "type": "address"
            },
            {
              "internalType": "bool",
              "name": "booked",
              "type": "bool"
            },
            {
              "internalType": "bool",
              "name": "deleted",
              "type": "bool"
            },
            {
              "internalType": "uint256",
              "name": "timestamp",
              "type": "uint256"
            }
          ],
          "internalType": "struct DappBanX.ApartmentStruct[]",
          "name": "Apartments",
          "type": "tuple[]"
        }
      ],
      "stateMutability": "view",
      "type": "function"
    },
    {
      "inputs": [
        {
          "internalType": "uint256",
          "name": "aid",
          "type": "uint256"
        },
        {
          "internalType": "uint256",
          "name": "bookingId",
          "type": "uint256"
        }
      ],
      "name": "getBooking",
      "outputs": [
        {
          "components": [
            {
              "internalType": "uint256",
              "name": "id",
              "type": "uint256"
            },
            {
              "internalType": "uint256",
              "name": "aid",
              "type": "uint256"
            },
            {
              "internalType": "address",
              "name": "tenant",
              "type": "address"
            },
            {
              "internalType": "uint256",
              "name": "date",
              "type": "uint256"
            },
            {
              "internalType": "uint256",
              "name": "price",
              "type": "uint256"
            },
            {
              "internalType": "bool",
              "name": "checked",
              "type": "bool"
            },
            {
              "internalType": "bool",
              "name": "cancelled",
              "type": "bool"
            },
            {
              "internalType": "bool",
              "name": "abandoned",
              "type": "bool"
            }
          ],
          "internalType": "struct DappBanX.BookingStruct",
          "name": "",
          "type": "tuple"
        }
      ],
      "stateMutability": "view",
      "type": "function"
    },
    {
      "inputs": [
        {
          "internalType": "uint256",
          "name": "aid",
          "type": "uint256"
        }
      ],
      "name": "getBookings",
      "outputs": [
        {
          "components": [
            {
              "internalType": "uint256",
              "name": "id",
              "type": "uint256"
            },
            {
              "internalType": "uint256",
              "name": "aid",
              "type": "uint256"
            },
            {
              "internalType": "address",
              "name": "tenant",
              "type": "address"
            },
            {
              "internalType": "uint256",
              "name": "date",
              "type": "uint256"
            },
            {
              "internalType": "uint256",
              "name": "price",
              "type": "uint256"
            },
            {
              "internalType": "bool",
              "name": "checked",
              "type": "bool"
            },
            {
              "internalType": "bool",
              "name": "cancelled",
              "type": "bool"
            },
            {
              "internalType": "bool",
              "name": "abandoned",
              "type": "bool"
            }
          ],
          "internalType": "struct DappBanX.BookingStruct[]",
          "name": "",
          "type": "tuple[]"
        }
      ],
      "stateMutability": "view",
      "type": "function"
    },
    {
      "inputs": [
        {
          "internalType": "uint256",
          "name": "aid",
          "type": "uint256"
        }
      ],
      "name": "getQualifiedReviewers",
      "outputs": [
        {
          "internalType": "address[]",
          "name": "Tenants",
          "type": "address[]"
        }
      ],
      "stateMutability": "view",
      "type": "function"
    },
    {
      "inputs": [
        {
          "internalType": "uint256",
          "name": "aid",
          "type": "uint256"
        }
      ],
      "name": "getReviews",
      "outputs": [
        {
          "components": [
            {
              "internalType": "uint256",
              "name": "id",
              "type": "uint256"
            },
            {
              "internalType": "uint256",
              "name": "aid",
              "type": "uint256"
            },
            {
              "internalType": "string",
              "name": "reviewText",
              "type": "string"
            },
            {
              "internalType": "uint256",
              "name": "timestamp",
              "type": "uint256"
            },
            {
              "internalType": "address",
              "name": "owner",
              "type": "address"
            }
          ],
          "internalType": "struct DappBanX.ReviewStruct[]",
          "name": "",
          "type": "tuple[]"
        }
      ],
      "stateMutability": "view",
      "type": "function"
    },
    {
      "inputs": [
        {
          "internalType": "uint256",
          "name": "aid",
          "type": "uint256"
        }
      ],
      "name": "getUnavailableDates",
      "outputs": [
        {
          "internalType": "uint256[]",
          "name": "",
          "type": "uint256[]"
        }
      ],
      "stateMutability": "view",
      "type": "function"
    },
    {
      "inputs": [],
      "name": "owner",
      "outputs": [
        {
          "internalType": "address",
          "name": "",
          "type": "address"
        }
      ],
      "stateMutability": "view",
      "type": "function"
    },
    {
      "inputs": [
        {
          "internalType": "uint256",
          "name": "aid",
          "type": "uint256"
        },
        {
          "internalType": "uint256",
          "name": "bookingId",
          "type": "uint256"
        }
      ],
      "name": "refundBooking",
      "outputs": [],
      "stateMutability": "nonpayable",
      "type": "function"
    },
    {
      "inputs": [],
      "name": "renounceOwnership",
      "outputs": [],
      "stateMutability": "nonpayable",
      "type": "function"
    },
    {
      "inputs": [],
      "name": "securityFee",
      "outputs": [
        {
          "internalType": "uint256",
          "name": "",
          "type": "uint256"
        }
      ],
      "stateMutability": "view",
      "type": "function"
    },
    {
      "inputs": [],
      "name": "taxPercent",
      "outputs": [
        {
          "internalType": "uint256",
          "name": "",
          "type": "uint256"
        }
      ],
      "stateMutability": "view",
      "type": "function"
    },
    {
      "inputs": [
        {
          "internalType": "uint256",
          "name": "appartmentId",
          "type": "uint256"
        }
      ],
      "name": "tenantBooked",
      "outputs": [
        {
          "internalType": "bool",
          "name": "",
          "type": "bool"
        }
      ],
      "stateMutability": "view",
      "type": "function"
    },
    {
      "inputs": [
        {
          "internalType": "address",
          "name": "newOwner",
          "type": "address"
        }
      ],
      "name": "transferOwnership",
      "outputs": [],
      "stateMutability": "nonpayable",
      "type": "function"
    },
    {
      "inputs": [
        {
          "internalType": "string",
          "name": "name",
          "type": "string"
        },
        {
          "internalType": "string",
          "name": "description",
          "type": "string"
        },
        {
          "internalType": "string",
          "name": "location",
          "type": "string"
        },
        {
          "internalType": "string",
          "name": "images",
          "type": "string"
        },
        {
          "internalType": "uint256",
          "name": "rooms",
          "type": "uint256"
        },
        {
          "internalType": "uint256",
          "name": "id",
          "type": "uint256"
        },
        {
          "internalType": "uint256",
          "name": "price",
          "type": "uint256"
        }
      ],
      "name": "updateApartment",
      "outputs": [],
      "stateMutability": "nonpayable",
      "type": "function"
    }
  ],
  "bytecode": "0x60806040523480156200001157600080fd5b5060405162003636380380620036368339810160408190526200003491620000a2565b6200003f3362000052565b60018055600491909155600355620000c7565b600080546001600160a01b038381166001600160a01b0319831681178455604051919092169283917f8be0079c531659141344cd1fd0a4f28419497f9722a3daafe3b4186f6b6457e09190a35050565b60008060408385031215620000b657600080fd5b505080516020909101519092909150565b61355f80620000d76000396000f3fe60806040526004361061012a5760003560e01c80639d4a2255116100ab578063d68e13021161006f578063d68e13021461037c578063db2f80b714610392578063df6e0222146103bf578063f2fde38b146103d2578063f4010995146103f2578063f45970c21461041f57600080fd5b80639d4a2255146102955780639f31a2be146102c2578063b1c980991461030d578063c4452e061461032f578063c788d6de1461035c57600080fd5b806367626e5d116100f257806367626e5d146101f4578063715018a6146102145780637541f41c1461022957806378419f611461024d5780638da5cb5b1461026d57600080fd5b8063010b58ee1461012f5780630bb9ce3314610151578063455b30701461018757806355c3fbfb146101b45780635bb0c5d6146101d4575b600080fd5b34801561013b57600080fd5b5061014f61014a366004612c2c565b61043f565b005b34801561015d57600080fd5b5061017161016c366004612c4e565b610708565b60405161017e9190612c67565b60405180910390f35b34801561019357600080fd5b506101a76101a2366004612c2c565b6108b1565b60405161017e9190612d10565b3480156101c057600080fd5b5061014f6101cf366004612c4e565b610963565b3480156101e057600080fd5b5061014f6101ef366004612dd6565b610a4d565b34801561020057600080fd5b5061014f61020f366004612c2c565b610c58565b34801561022057600080fd5b5061014f611061565b34801561023557600080fd5b5061023f60045481565b60405190815260200161017e565b34801561025957600080fd5b5061014f610268366004612c2c565b611075565b34801561027957600080fd5b506000546040516001600160a01b03909116815260200161017e565b3480156102a157600080fd5b506102b56102b0366004612c4e565b6112c5565b60405161017e9190612e63565b3480156102ce57600080fd5b506102fd6102dd366004612c4e565b336000908152600b60209081526040808320938352929052205460ff1690565b604051901515815260200161017e565b34801561031957600080fd5b50610322611400565b60405161017e9190612fce565b34801561033b57600080fd5b5061034f61034a366004612c4e565b6117e0565b60405161017e9190613030565b34801561036857600080fd5b5061014f61037736600461304a565b611ab4565b34801561038857600080fd5b5061023f60035481565b34801561039e57600080fd5b506103b26103ad366004612c4e565b611dd1565b60405161017e9190613109565b61014f6103cd366004613141565b611e33565b3480156103de57600080fd5b5061014f6103ed3660046131f3565b612148565b3480156103fe57600080fd5b5061041261040d366004612c4e565b6121c1565b60405161017e919061321c565b34801561042b57600080fd5b5061014f61043a36600461325f565b61228c565b610447612946565b600082815260066020526040812080548390811061046757610467613327565b6000918252602080832060408051610100808201835260069095029092018054835260018101548385015260028101546001600160a01b0390811684840152600382015460608501526004820154608085015260059182015460ff808216151560a08701529681048716151560c0860152620100009004909516151560e0840152888652909252922060070154919250339116148061051057506000546001600160a01b031633145b6105575760405162461bcd60e51b8152602060048201526013602482015272556e617574686f72697a656420656e7469747960681b60448201526064015b60405180910390fd5b8060a001511561059e5760405162461bcd60e51b815260206004820152601260248201527120b63932b0b23c9031b432b1b5b2b21034b760711b604482015260640161054e565b6105a661299f565b8160600151106106075760405162461bcd60e51b815260206004820152602660248201527f4e6f7420616c6c6f7765642c20626f6f6b696e672064617465206e6f7420657860448201526518d95959195960d21b606482015260840161054e565b60008381526006602052604090208054600191908490811061062b5761062b613327565b906000526020600020906006020160050160026101000a81548160ff0219169083151502179055506000606460045483608001516106699190613353565b610673919061336a565b905060006064600354846080015161068b9190613353565b610695919061336a565b60008681526005602052604090206007015460808501519192506106cf916001600160a01b03909116906106ca90859061338c565b6129be565b6106ea6106e46000546001600160a01b031690565b836129be565b6106f88360400151826129be565b50505061070460018055565b5050565b60606000805b60008481526006602052604090205481101561078057600084815260066020526040902080548290811061074457610744613327565b600091825260209091206005600690920201015460ff161561076e578161076a8161339f565b9250505b806107788161339f565b91505061070e565b508067ffffffffffffffff81111561079a5761079a612d1f565b6040519080825280602002602001820160405280156107c3578160200160208202803683370190505b5091506000805b6000858152600660205260409020548110156108a957600085815260066020526040902080548290811061080057610800613327565b600091825260209091206005600690920201015460ff161561089757600085815260066020526040902080548290811061083c5761083c613327565b60009182526020909120600260069092020101546001600160a01b031684836108648161339f565b94508151811061087657610876613327565b60200260200101906001600160a01b031690816001600160a01b0316815250505b806108a18161339f565b9150506107ca565b505050919050565b6108b9612b71565b60008381526006602052604090208054839081106108d9576108d9613327565b600091825260209182902060408051610100808201835260069094029092018054835260018101549483019490945260028401546001600160a01b031690820152600383015460608201526004830154608082015260059092015460ff808216151560a08501529181048216151560c084015262010000900416151560e082015290505b92915050565b60008181526008602052604090205460ff166109b75760405162461bcd60e51b8152602060048201526013602482015272105c185c9d1b595b9d081b9bdd08199bdd5b99606a1b604482015260640161054e565b6000818152600560205260409020600701546001600160a01b03163314610a175760405162461bcd60e51b8152602060048201526014602482015273556e617574686f72697a656420656e746974792160601b604482015260640161054e565b6000908152600860209081526040808320805460ff1916905560059091529020600701805460ff60a81b1916600160a81b179055565b60008281526008602052604090205460ff16610aab5760405162461bcd60e51b815260206004820152601860248201527f4170706172746d656e74206e6f7420617661696c61626c650000000000000000604482015260640161054e565b336000908152600b6020908152604080832085845290915290205460ff16610b155760405162461bcd60e51b815260206004820152601860248201527f426f6f6b206669727374206265666f7265207265766965770000000000000000604482015260640161054e565b6000815111610b665760405162461bcd60e51b815260206004820152601b60248201527f52657669657720746578742063616e6e6f7420626520656d7074790000000000604482015260640161054e565b610ba16040518060a001604052806000815260200160008152602001606081526020016000815260200160006001600160a01b031681525090565b6020808201849052600084815260079091526040908190205482528101829052610bc961299f565b6060820152336080820152600083815260076020908152604080832080546001818101835591855293839020855160059095020193845591840151918301919091558201518291906002820190610c209082613440565b5060608201516003820155608090910151600490910180546001600160a01b0319166001600160a01b03909216919091179055505050565b610c60612946565b6000828152600660205260408120805483908110610c8057610c80613327565b600091825260209182902060408051610100808201835260069094029092018054835260018101549483019490945260028401546001600160a01b031690820152600383015460608201526004830154608082015260059092015460ff80821615801560a08601529282048116151560c08501526201000090910416151560e0830152909150610d655760405162461bcd60e51b815260206004820152602a60248201527f41706172746d656e7420616c726561647920636865636b656420696e206f6e206044820152697468697320646174652160b01b606482015260840161054e565b6000838152600a602090815260408083206060850151845290915290205460ff16610dd25760405162461bcd60e51b815260206004820152601a60248201527f446964206e6f7420626f6f6b206f6e2074686973206461746521000000000000604482015260640161054e565b6000546001600160a01b03163314610ead5780604001516001600160a01b0316336001600160a01b031614610e405760405162461bcd60e51b8152602060048201526014602482015273556e617574686f72697a65642074656e616e742160601b604482015260640161054e565b610e4861299f565b816060015111610ead5760405162461bcd60e51b815260206004820152602a60248201527f43616e206e6f206c6f6e67657220726566756e642c20626f6f6b696e672064616044820152691d19481cdd185c9d195960b21b606482015260840161054e565b600083815260066020526040902080546001919084908110610ed157610ed1613327565b6000918252602080832060056006909302019190910180549315156101000261ff001990941693909317909255848152600a82526040808220606085015183528352808220805460ff19169055858252600990925290812054610f369060019061338c565b60008581526009602052604081208054929350909183908110610f5b57610f5b613327565b9060005260206000200154905080600960008781526020019081526020016000208581548110610f8d57610f8d613327565b906000526020600020018190555060096000868152602001908152602001600020805480610fbd57610fbd613500565b60019003818190600052602060002001600090559055600060646003548560800151610fe99190613353565b610ff3919061336a565b9050600061100260028361336a565b60008881526005602052604090206007015490915061102a906001600160a01b0316826129be565b61104561103f6000546001600160a01b031690565b826129be565b6110533386608001516129be565b505050505061070460018055565b611069612a23565b6110736000612a7d565b565b61107d612946565b600082815260066020526040812080548390811061109d5761109d613327565b600091825260209182902060408051610100808201835260069094029092018054835260018101549483019490945260028401546001600160a01b0316908201819052600384015460608301526004840154608083015260059093015460ff808216151560a08401529281048316151560c0830152620100009004909116151560e0820152915033146111685760405162461bcd60e51b8152602060048201526013602482015272556e617574686f72697a656420456e7469747960681b604482015260640161054e565b8060a00151156111ca5760405162461bcd60e51b815260206004820152602760248201527f41706172746d656e7420616c726561647920636865636b6564206f6e207468696044820152667320646174652160c81b606482015260840161054e565b6000838152600660205260409020805460019190849081106111ee576111ee613327565b60009182526020808320600560069093020191909101805493151560ff19948516179055338252600b8152604080832087845290915281208054909216600117909155600454608083015160649161124591613353565b61124f919061336a565b90506000606460035484608001516112679190613353565b611271919061336a565b60008681526005602052604090206007015460808501519192506112a6916001600160a01b03909116906106ca90859061338c565b6112bb6106e46000546001600160a01b031690565b6106f833826129be565b606060076000838152602001908152602001600020805480602002602001604051908101604052809291908181526020016000905b828210156113f557838290600052602060002090600502016040518060a00160405290816000820154815260200160018201548152602001600282018054611341906133b8565b80601f016020809104026020016040519081016040528092919081815260200182805461136d906133b8565b80156113ba5780601f1061138f576101008083540402835291602001916113ba565b820191906000526020600020905b81548152906001019060200180831161139d57829003601f168201915b505050918352505060038201546020808301919091526004909201546001600160a01b031660409091015290825260019290920191016112fa565b505050509050919050565b6060600060015b600254811161145057600081815260056020526040902060070154600160a81b900460ff1661143e578161143a8161339f565b9250505b806114488161339f565b915050611407565b508067ffffffffffffffff81111561146a5761146a612d1f565b6040519080825280602002602001820160405280156114a357816020015b611490612bc5565b8152602001906001900390816114885790505b509150600060015b60025481116117da57600081815260056020526040902060070154600160a81b900460ff166117c85760056000828152602001908152602001600020604051806101600160405290816000820154815260200160018201805461150d906133b8565b80601f0160208091040260200160405190810160405280929190818152602001828054611539906133b8565b80156115865780601f1061155b57610100808354040283529160200191611586565b820191906000526020600020905b81548152906001019060200180831161156957829003601f168201915b5050505050815260200160028201805461159f906133b8565b80601f01602080910402602001604051908101604052809291908181526020018280546115cb906133b8565b80156116185780601f106115ed57610100808354040283529160200191611618565b820191906000526020600020905b8154815290600101906020018083116115fb57829003601f168201915b50505050508152602001600382018054611631906133b8565b80601f016020809104026020016040519081016040528092919081815260200182805461165d906133b8565b80156116aa5780601f1061167f576101008083540402835291602001916116aa565b820191906000526020600020905b81548152906001019060200180831161168d57829003601f168201915b505050505081526020016004820180546116c3906133b8565b80601f01602080910402602001604051908101604052809291908181526020018280546116ef906133b8565b801561173c5780601f106117115761010080835404028352916020019161173c565b820191906000526020600020905b81548152906001019060200180831161171f57829003601f168201915b5050509183525050600582015460208201526006820154604082015260078201546001600160a01b038116606083015260ff600160a01b8204811615156080840152600160a81b90910416151560a082015260089091015460c09091015284518590849081106117ae576117ae613327565b602002602001018190525081806117c49061339f565b9250505b806117d28161339f565b9150506114ab565b50505090565b6117e8612bc5565b600560008381526020019081526020016000206040518061016001604052908160008201548152602001600182018054611821906133b8565b80601f016020809104026020016040519081016040528092919081815260200182805461184d906133b8565b801561189a5780601f1061186f5761010080835404028352916020019161189a565b820191906000526020600020905b81548152906001019060200180831161187d57829003601f168201915b505050505081526020016002820180546118b3906133b8565b80601f01602080910402602001604051908101604052809291908181526020018280546118df906133b8565b801561192c5780601f106119015761010080835404028352916020019161192c565b820191906000526020600020905b81548152906001019060200180831161190f57829003601f168201915b50505050508152602001600382018054611945906133b8565b80601f0160208091040260200160405190810160405280929190818152602001828054611971906133b8565b80156119be5780601f10611993576101008083540402835291602001916119be565b820191906000526020600020905b8154815290600101906020018083116119a157829003601f168201915b505050505081526020016004820180546119d7906133b8565b80601f0160208091040260200160405190810160405280929190818152602001828054611a03906133b8565b8015611a505780601f10611a2557610100808354040283529160200191611a50565b820191906000526020600020905b815481529060010190602001808311611a3357829003601f168201915b5050509183525050600582015460208201526006820154604082015260078201546001600160a01b038116606083015260ff600160a01b8204811615156080840152600160a81b90910416151560a082015260089091015460c09091015292915050565b6000865111611afc5760405162461bcd60e51b81526020600482015260146024820152734e616d652063616e6e6f7420626520656d70747960601b604482015260640161054e565b6000855111611b4d5760405162461bcd60e51b815260206004820152601b60248201527f4465736372697074696f6e2063616e6e6f7420626520656d7074790000000000604482015260640161054e565b6000845111611b995760405162461bcd60e51b81526020600482015260186024820152774c6f636174696f6e2063616e6e6f7420626520656d70747960401b604482015260640161054e565b6000835111611be35760405162461bcd60e51b8152602060048201526016602482015275496d616765732063616e6e6f7420626520656d70747960501b604482015260640161054e565b60008211611c2e5760405162461bcd60e51b8152602060048201526018602482015277526f6f6d65732063616e6e6f74206265207a65726f28302960401b604482015260640161054e565b60008111611c785760405162461bcd60e51b815260206004820152601760248201527650726963652063616e6e6f74206265207a65726f28302960481b604482015260640161054e565b611c86600280546001019055565b611c8e612bc5565b60025481526020810187905260408101869052606081018590526080810184905260a0810183905260c081018290523360e0820152611ccb61299f565b61014082015280516000908152600860209081526040808320805460ff191660019081179091558451845260058352922083518155908301518392820190611d139082613440565b5060408201516002820190611d289082613440565b5060608201516003820190611d3d9082613440565b5060808201516004820190611d529082613440565b5060a0820151600582015560c0820151600682015560e08201516007820180546101008501516101208601511515600160a81b0260ff60a81b19911515600160a01b026001600160a81b03199093166001600160a01b039095169490941791909117169190911790556101409091015160089091015550505050505050565b600081815260096020908152604091829020805483518184028101840190945280845260609392830182828015611e2757602002820191906000526020600020905b815481526020019060010190808311611e13575b50505050509050919050565b80516000838152600560205260408120600601549091611e5291613353565b90506000606460035483611e669190613353565b611e70919061336a565b60008581526008602052604090205490915060ff16611ec85760405162461bcd60e51b815260206004820152601460248201527341706172746d656e74206e6f7420666f756e642160601b604482015260640161054e565b611ed28183613516565b341015611f215760405162461bcd60e51b815260206004820152601b60248201527f496e73756666696369656e742066756e6420737570706c696564210000000000604482015260640161054e565b611f2b8484612acd565b611f775760405162461bcd60e51b815260206004820181905260248201527f4f6e65206f72206d6f7265206461746573206e6f7420617661696c61626c6521604482015260640161054e565b60005b835181101561214157611f8b612b71565b600086815260066020908152604091829020548352820187905233908201528451859083908110611fbe57611fbe613327565b60209081029190910181015160608301908152600088815260058084526040808320600690810154608088019081528c85528187528285208054600180820183559187528887208a51919094029093019283558888015190830155828801516002830180546001600160a01b0319166001600160a01b03909216919091179055945160038201559351600485015560a086015193909101805460c087015160e088015161ffff1990921695151561ff00191695909517610100951515959095029490941762ff000019166201000094151594909402939093179092558881526009909252902085518690849081106120b8576120b8613327565b602090810291909101810151825460018181018555600094855283852090910191909155888352600a9091526040822087519192909188908690811061210057612100613327565b6020026020010151815260200190815260200160002060006101000a81548160ff0219169083151502179055505080806121399061339f565b915050611f7a565b5050505050565b612150612a23565b6001600160a01b0381166121b55760405162461bcd60e51b815260206004820152602660248201527f4f776e61626c653a206e6577206f776e657220697320746865207a65726f206160448201526564647265737360d01b606482015260840161054e565b6121be81612a7d565b50565b606060066000838152602001908152602001600020805480602002602001604051908101604052809291908181526020016000905b828210156113f557600084815260209081902060408051610100808201835260068702909301805482526001808201548387015260028201546001600160a01b03169383019390935260038101546060830152600481015460808301526005015460ff808216151560a08401529381048416151560c0830152620100009004909216151560e083015290835290920191016121f6565b60008281526008602052604090205460ff166122e05760405162461bcd60e51b8152602060048201526013602482015272105c185c9d1b595b9d081b9bdd08199bdd5b99606a1b604482015260640161054e565b6000828152600560205260409020600701546001600160a01b0316331461235c5760405162461bcd60e51b815260206004820152602a60248201527f556e617574686f72697a656420706572736f6e6e656c2c206f776e6572206f6e6044820152691b1e48185b1b1bddd95960b21b606482015260840161054e565b60008751116123a45760405162461bcd60e51b81526020600482015260146024820152734e616d652063616e6e6f7420626520656d70747960601b604482015260640161054e565b60008651116123f55760405162461bcd60e51b815260206004820152601b60248201527f4465736372697074696f6e2063616e6e6f7420626520656d7074790000000000604482015260640161054e565b60008551116124415760405162461bcd60e51b81526020600482015260186024820152774c6f636174696f6e2063616e6e6f7420626520656d70747960401b604482015260640161054e565b600084511161248b5760405162461bcd60e51b8152602060048201526016602482015275496d616765732063616e6e6f7420626520656d70747960501b604482015260640161054e565b600083116124d65760405162461bcd60e51b8152602060048201526018602482015277526f6f6d65732063616e6e6f74206265207a65726f28302960401b604482015260640161054e565b600081116125205760405162461bcd60e51b815260206004820152601760248201527650726963652063616e6e6f74206265207a65726f28302960481b604482015260640161054e565b600060056000848152602001908152602001600020604051806101600160405290816000820154815260200160018201805461255b906133b8565b80601f0160208091040260200160405190810160405280929190818152602001828054612587906133b8565b80156125d45780601f106125a9576101008083540402835291602001916125d4565b820191906000526020600020905b8154815290600101906020018083116125b757829003601f168201915b505050505081526020016002820180546125ed906133b8565b80601f0160208091040260200160405190810160405280929190818152602001828054612619906133b8565b80156126665780601f1061263b57610100808354040283529160200191612666565b820191906000526020600020905b81548152906001019060200180831161264957829003601f168201915b5050505050815260200160038201805461267f906133b8565b80601f01602080910402602001604051908101604052809291908181526020018280546126ab906133b8565b80156126f85780601f106126cd576101008083540402835291602001916126f8565b820191906000526020600020905b8154815290600101906020018083116126db57829003601f168201915b50505050508152602001600482018054612711906133b8565b80601f016020809104026020016040519081016040528092919081815260200182805461273d906133b8565b801561278a5780601f1061275f5761010080835404028352916020019161278a565b820191906000526020600020905b81548152906001019060200180831161276d57829003601f168201915b5050505050815260200160058201548152602001600682015481526020016007820160009054906101000a90046001600160a01b03166001600160a01b03166001600160a01b031681526020016007820160149054906101000a900460ff161515151581526020016007820160159054906101000a900460ff161515151581526020016008820154815250509050878160200181905250868160400181905250858160600181905250848160800181905250838160a0018181525050818160c00181815250508060056000836000015181526020019081526020016000206000820151816000015560208201518160010190816128879190613440565b506040820151600282019061289c9082613440565b50606082015160038201906128b19082613440565b50608082015160048201906128c69082613440565b5060a0820151600582015560c0820151600682015560e08201516007820180546101008501516101208601511515600160a81b0260ff60a81b19911515600160a01b026001600160a81b03199093166001600160a01b03909516949094179190911716919091179055610140909101516008909101555050505050505050565b6002600154036129985760405162461bcd60e51b815260206004820152601f60248201527f5265656e7472616e637947756172643a207265656e7472616e742063616c6c00604482015260640161054e565b6002600155565b60006129ad426103e8613353565b6129b9906103e8613516565b905090565b6000826001600160a01b03168260405160006040518083038185875af1925050503d8060008114612a0b576040519150601f19603f3d011682016040523d82523d6000602084013e612a10565b606091505b5050905080612a1e57600080fd5b505050565b6000546001600160a01b031633146110735760405162461bcd60e51b815260206004820181905260248201527f4f776e61626c653a2063616c6c6572206973206e6f7420746865206f776e6572604482015260640161054e565b600080546001600160a01b038381166001600160a01b0319831681178455604051919092169283917f8be0079c531659141344cd1fd0a4f28419497f9722a3daafe3b4186f6b6457e09190a35050565b60006001815b8351811015612b695760005b600086815260096020526040902054811015612b56576000868152600960205260409020805482908110612b1557612b15613327565b9060005260206000200154858381518110612b3257612b32613327565b602002602001015103612b4457600092505b80612b4e8161339f565b915050612adf565b5080612b618161339f565b915050612ad3565b505092915050565b604051806101000160405280600081526020016000815260200160006001600160a01b0316815260200160008152602001600081526020016000151581526020016000151581526020016000151581525090565b6040518061016001604052806000815260200160608152602001606081526020016060815260200160608152602001600081526020016000815260200160006001600160a01b03168152602001600015158152602001600015158152602001600081525090565b60008060408385031215612c3f57600080fd5b50508035926020909101359150565b600060208284031215612c6057600080fd5b5035919050565b6020808252825182820181905260009190848201906040850190845b81811015612ca85783516001600160a01b031683529284019291840191600101612c83565b50909695505050505050565b805182526020810151602083015260018060a01b036040820151166040830152606081015160608301526080810151608083015260a0810151151560a083015260c0810151151560c083015260e0810151151560e08301525050565b610100810161095d8284612cb4565b634e487b7160e01b600052604160045260246000fd5b604051601f8201601f1916810167ffffffffffffffff81118282101715612d5e57612d5e612d1f565b604052919050565b600082601f830112612d7757600080fd5b813567ffffffffffffffff811115612d9157612d91612d1f565b612da4601f8201601f1916602001612d35565b818152846020838601011115612db957600080fd5b816020850160208301376000918101602001919091529392505050565b60008060408385031215612de957600080fd5b82359150602083013567ffffffffffffffff811115612e0757600080fd5b612e1385828601612d66565b9150509250929050565b6000815180845260005b81811015612e4357602081850181015186830182015201612e27565b506000602082860101526020601f19601f83011685010191505092915050565b60006020808301818452808551808352604092508286019150828160051b87010184880160005b83811015612ef357603f19898403018552815160a0815185528882015189860152878201518189870152612ec082870182612e1d565b606084810151908801526080938401516001600160a01b0316939096019290925250509386019390860190600101612e8a565b509098975050505050505050565b6000610160825184526020830151816020860152612f2182860182612e1d565b91505060408301518482036040860152612f3b8282612e1d565b91505060608301518482036060860152612f558282612e1d565b91505060808301518482036080860152612f6f8282612e1d565b91505060a083015160a085015260c083015160c085015260e0830151612fa060e08601826001600160a01b03169052565b5061010083810151151590850152610120808401511515908501526101409283015192909301919091525090565b6000602080830181845280855180835260408601915060408160051b870101925083870160005b8281101561302357603f19888603018452613011858351612f01565b94509285019290850190600101612ff5565b5092979650505050505050565b6020815260006130436020830184612f01565b9392505050565b60008060008060008060c0878903121561306357600080fd5b863567ffffffffffffffff8082111561307b57600080fd5b6130878a838b01612d66565b9750602089013591508082111561309d57600080fd5b6130a98a838b01612d66565b965060408901359150808211156130bf57600080fd5b6130cb8a838b01612d66565b955060608901359150808211156130e157600080fd5b506130ee89828a01612d66565b9350506080870135915060a087013590509295509295509295565b6020808252825182820181905260009190848201906040850190845b81811015612ca857835183529284019291840191600101613125565b6000806040838503121561315457600080fd5b8235915060208084013567ffffffffffffffff8082111561317457600080fd5b818601915086601f83011261318857600080fd5b81358181111561319a5761319a612d1f565b8060051b91506131ab848301612d35565b81815291830184019184810190898411156131c557600080fd5b938501935b838510156131e3578435825293850193908501906131ca565b8096505050505050509250929050565b60006020828403121561320557600080fd5b81356001600160a01b038116811461304357600080fd5b6020808252825182820181905260009190848201906040850190845b81811015612ca85761324b838551612cb4565b928401926101009290920191600101613238565b600080600080600080600060e0888a03121561327a57600080fd5b873567ffffffffffffffff8082111561329257600080fd5b61329e8b838c01612d66565b985060208a01359150808211156132b457600080fd5b6132c08b838c01612d66565b975060408a01359150808211156132d657600080fd5b6132e28b838c01612d66565b965060608a01359150808211156132f857600080fd5b506133058a828b01612d66565b979a969950949760808101359660a0820135965060c090910135945092505050565b634e487b7160e01b600052603260045260246000fd5b634e487b7160e01b600052601160045260246000fd5b808202811582820484141761095d5761095d61333d565b60008261338757634e487b7160e01b600052601260045260246000fd5b500490565b8181038181111561095d5761095d61333d565b6000600182016133b1576133b161333d565b5060010190565b600181811c908216806133cc57607f821691505b6020821081036133ec57634e487b7160e01b600052602260045260246000fd5b50919050565b601f821115612a1e57600081815260208120601f850160051c810160208610156134195750805b601f850160051c820191505b8181101561343857828155600101613425565b505050505050565b815167ffffffffffffffff81111561345a5761345a612d1f565b61346e8161346884546133b8565b846133f2565b602080601f8311600181146134a3576000841561348b5750858301515b600019600386901b1c1916600185901b178555613438565b600085815260208120601f198616915b828110156134d2578886015182559484019460019091019084016134b3565b50858210156134f05787850151600019600388901b60f8161c191681555b5050505050600190811b01905550565b634e487b7160e01b600052603160045260246000fd5b8082018082111561095d5761095d61333d56fea26469706673582212201534a48056e5bd94f230af7d51923e38d8ef1e4c1b65d58a46d2ac255ad28ecf64736f6c63430008130033",
  "linkReferences": {},
  "deployedLinkReferences": {}
}