{
  "_format": "hh-sol-artifact-1",
  "contractName": "DappBanX",
  "sourceName": "contracts/DappBnbX.sol",
  "abi": [
    {
      "inputs": [
        {
          "internalType": "uint256",
          "name": "_taxPercent",
          "type": "uint256"
        },
        {
          "internalType": "uint256",
          "name": "_securityFee",
          "type": "uint256"
        }
      ],
      "stateMutability": "nonpayable",
      "type": "constructor"
    },
    {
      "anonymous": false,
      "inputs": [
        {
          "indexed": true,
          "internalType": "address",
          "name": "previousOwner",
          "type": "address"
        },
        {
          "indexed": true,
          "internalType": "address",
          "name": "newOwner",
          "type": "address"
        }
      ],
      "name": "OwnershipTransferred",
      "type": "event"
    },
    {
      "inputs": [
        {
          "internalType": "uint256",
          "name": "aid",
          "type": "uint256"
        },
        {
          "internalType": "string",
          "name": "reviewText",
          "type": "string"
        }
      ],
      "name": "addReview",
      "outputs": [],
      "stateMutability": "nonpayable",
      "type": "function"
    },
    {
      "inputs": [
        {
          "internalType": "uint256",
          "name": "aid",
          "type": "uint256"
        },
        {
          "internalType": "uint256[]",
          "name": "dates",
          "type": "uint256[]"
        }
      ],
      "name": "bookApartment",
      "outputs": [],
      "stateMutability": "payable",
      "type": "function"
    },
    {
      "inputs": [
        {
          "internalType": "uint256",
          "name": "aid",
          "type": "uint256"
        },
        {
          "internalType": "uint256",
          "name": "bookingId",
          "type": "uint256"
        }
      ],
      "name": "checkInApartment",
      "outputs": [],
      "stateMutability": "nonpayable",
      "type": "function"
    },
    {
      "inputs": [
        {
          "internalType": "uint256",
          "name": "aid",
          "type": "uint256"
        },
        {
          "internalType": "uint256",
          "name": "bookingId",
          "type": "uint256"
        }
      ],
      "name": "claimFunds",
      "outputs": [],
      "stateMutability": "nonpayable",
      "type": "function"
    },
    {
      "inputs": [
        {
          "internalType": "string",
          "name": "name",
          "type": "string"
        },
        {
          "internalType": "string",
          "name": "description",
          "type": "string"
        },
        {
          "internalType": "string",
          "name": "location",
          "type": "string"
        },
        {
          "internalType": "string",
          "name": "images",
          "type": "string"
        },
        {
          "internalType": "uint256",
          "name": "rooms",
          "type": "uint256"
        },
        {
          "internalType": "uint256",
          "name": "price",
          "type": "uint256"
        }
      ],
      "name": "createApartment",
      "outputs": [],
      "stateMutability": "nonpayable",
      "type": "function"
    },
    {
      "inputs": [
        {
          "internalType": "uint256",
          "name": "id",
          "type": "uint256"
        }
      ],
      "name": "deleteApartment",
      "outputs": [],
      "stateMutability": "nonpayable",
      "type": "function"
    },
    {
      "inputs": [
        {
          "internalType": "uint256",
          "name": "id",
          "type": "uint256"
        }
      ],
      "name": "getApartment",
      "outputs": [
        {
          "components": [
            {
              "internalType": "uint256",
              "name": "id",
              "type": "uint256"
            },
            {
              "internalType": "string",
              "name": "name",
              "type": "string"
            },
            {
              "internalType": "string",
              "name": "description",
              "type": "string"
            },
            {
              "internalType": "string",
              "name": "location",
              "type": "string"
            },
            {
              "internalType": "string",
              "name": "images",
              "type": "string"
            },
            {
              "internalType": "uint256",
              "name": "rooms",
              "type": "uint256"
            },
            {
              "internalType": "uint256",
              "name": "price",
              "type": "uint256"
            },
            {
              "internalType": "address",
              "name": "owner",
              "type": "address"
            },
            {
              "internalType": "bool",
              "name": "booked",
              "type": "bool"
            },
            {
              "internalType": "bool",
              "name": "deleted",
              "type": "bool"
            },
            {
              "internalType": "uint256",
              "name": "timestamp",
              "type": "uint256"
            }
          ],
          "internalType": "struct DappBanX.ApartmentStruct",
          "name": "",
          "type": "tuple"
        }
      ],
      "stateMutability": "view",
      "type": "function"
    },
    {
      "inputs": [],
      "name": "getApartments",
      "outputs": [
        {
          "components": [
            {
              "internalType": "uint256",
              "name": "id",
              "type": "uint256"
            },
            {
              "internalType": "string",
              "name": "name",
              "type": "string"
            },
            {
              "internalType": "string",
              "name": "description",
              "type": "string"
            },
            {
              "internalType": "string",
              "name": "location",
              "type": "string"
            },
            {
              "internalType": "string",
              "name": "images",
              "type": "string"
            },
            {
              "internalType": "uint256",
              "name": "rooms",
              "type": "uint256"
            },
            {
              "internalType": "uint256",
              "name": "price",
              "type": "uint256"
            },
            {
              "internalType": "address",
              "name": "owner",
              "type": "address"
            },
            {
              "internalType": "bool",
              "name": "booked",
              "type": "bool"
            },
            {
              "internalType": "bool",
              "name": "deleted",
              "type": "bool"
            },
            {
              "internalType": "uint256",
              "name": "timestamp",
              "type": "uint256"
            }
          ],
          "internalType": "struct DappBanX.ApartmentStruct[]",
          "name": "Apartments",
          "type": "tuple[]"
        }
      ],
      "stateMutability": "view",
      "type": "function"
    },
    {
      "inputs": [
        {
          "internalType": "uint256",
          "name": "aid",
          "type": "uint256"
        },
        {
          "internalType": "uint256",
          "name": "bookingId",
          "type": "uint256"
        }
      ],
      "name": "getBooking",
      "outputs": [
        {
          "components": [
            {
              "internalType": "uint256",
              "name": "id",
              "type": "uint256"
            },
            {
              "internalType": "uint256",
              "name": "aid",
              "type": "uint256"
            },
            {
              "internalType": "address",
              "name": "tenant",
              "type": "address"
            },
            {
              "internalType": "uint256",
              "name": "date",
              "type": "uint256"
            },
            {
              "internalType": "uint256",
              "name": "price",
              "type": "uint256"
            },
            {
              "internalType": "bool",
              "name": "checked",
              "type": "bool"
            },
            {
              "internalType": "bool",
              "name": "cancelled",
              "type": "bool"
            },
            {
              "internalType": "bool",
              "name": "abandoned",
              "type": "bool"
            }
          ],
          "internalType": "struct DappBanX.BookingStruct",
          "name": "",
          "type": "tuple"
        }
      ],
      "stateMutability": "view",
      "type": "function"
    },
    {
      "inputs": [
        {
          "internalType": "uint256",
          "name": "aid",
          "type": "uint256"
        }
      ],
      "name": "getBookings",
      "outputs": [
        {
          "components": [
            {
              "internalType": "uint256",
              "name": "id",
              "type": "uint256"
            },
            {
              "internalType": "uint256",
              "name": "aid",
              "type": "uint256"
            },
            {
              "internalType": "address",
              "name": "tenant",
              "type": "address"
            },
            {
              "internalType": "uint256",
              "name": "date",
              "type": "uint256"
            },
            {
              "internalType": "uint256",
              "name": "price",
              "type": "uint256"
            },
            {
              "internalType": "bool",
              "name": "checked",
              "type": "bool"
            },
            {
              "internalType": "bool",
              "name": "cancelled",
              "type": "bool"
            },
            {
              "internalType": "bool",
              "name": "abandoned",
              "type": "bool"
            }
          ],
          "internalType": "struct DappBanX.BookingStruct[]",
          "name": "",
          "type": "tuple[]"
        }
      ],
      "stateMutability": "view",
      "type": "function"
    },
    {
      "inputs": [
        {
          "internalType": "uint256",
          "name": "aid",
          "type": "uint256"
        }
      ],
      "name": "getQualifiedReviewers",
      "outputs": [
        {
          "internalType": "address[]",
          "name": "Tenants",
          "type": "address[]"
        }
      ],
      "stateMutability": "view",
      "type": "function"
    },
    {
      "inputs": [
        {
          "internalType": "uint256",
          "name": "aid",
          "type": "uint256"
        }
      ],
      "name": "getReviews",
      "outputs": [
        {
          "components": [
            {
              "internalType": "uint256",
              "name": "id",
              "type": "uint256"
            },
            {
              "internalType": "uint256",
              "name": "aid",
              "type": "uint256"
            },
            {
              "internalType": "string",
              "name": "reviewText",
              "type": "string"
            },
            {
              "internalType": "uint256",
              "name": "timestamp",
              "type": "uint256"
            },
            {
              "internalType": "address",
              "name": "owner",
              "type": "address"
            }
          ],
          "internalType": "struct DappBanX.ReviewStruct[]",
          "name": "",
          "type": "tuple[]"
        }
      ],
      "stateMutability": "view",
      "type": "function"
    },
    {
      "inputs": [
        {
          "internalType": "uint256",
          "name": "aid",
          "type": "uint256"
        }
      ],
      "name": "getUnavailableDates",
      "outputs": [
        {
          "internalType": "uint256[]",
          "name": "",
          "type": "uint256[]"
        }
      ],
      "stateMutability": "view",
      "type": "function"
    },
    {
      "inputs": [],
      "name": "owner",
      "outputs": [
        {
          "internalType": "address",
          "name": "",
          "type": "address"
        }
      ],
      "stateMutability": "view",
      "type": "function"
    },
    {
      "inputs": [
        {
          "internalType": "uint256",
          "name": "aid",
          "type": "uint256"
        },
        {
          "internalType": "uint256",
          "name": "bookingId",
          "type": "uint256"
        }
      ],
      "name": "refundBooking",
      "outputs": [],
      "stateMutability": "nonpayable",
      "type": "function"
    },
    {
      "inputs": [],
      "name": "renounceOwnership",
      "outputs": [],
      "stateMutability": "nonpayable",
      "type": "function"
    },
    {
      "inputs": [],
      "name": "securityFee",
      "outputs": [
        {
          "internalType": "uint256",
          "name": "",
          "type": "uint256"
        }
      ],
      "stateMutability": "view",
      "type": "function"
    },
    {
      "inputs": [],
      "name": "taxPercent",
      "outputs": [
        {
          "internalType": "uint256",
          "name": "",
          "type": "uint256"
        }
      ],
      "stateMutability": "view",
      "type": "function"
    },
    {
      "inputs": [
        {
          "internalType": "uint256",
          "name": "apartmentId",
          "type": "uint256"
        }
      ],
      "name": "tenantBooked",
      "outputs": [
        {
          "internalType": "bool",
          "name": "",
          "type": "bool"
        }
      ],
      "stateMutability": "view",
      "type": "function"
    },
    {
      "inputs": [
        {
          "internalType": "address",
          "name": "newOwner",
          "type": "address"
        }
      ],
      "name": "transferOwnership",
      "outputs": [],
      "stateMutability": "nonpayable",
      "type": "function"
    },
    {
      "inputs": [
        {
          "internalType": "uint256",
          "name": "id",
          "type": "uint256"
        },
        {
          "internalType": "string",
          "name": "name",
          "type": "string"
        },
        {
          "internalType": "string",
          "name": "description",
          "type": "string"
        },
        {
          "internalType": "string",
          "name": "location",
          "type": "string"
        },
        {
          "internalType": "string",
          "name": "images",
          "type": "string"
        },
        {
          "internalType": "uint256",
          "name": "rooms",
          "type": "uint256"
        },
        {
          "internalType": "uint256",
          "name": "price",
          "type": "uint256"
        }
      ],
      "name": "updateApartment",
      "outputs": [],
      "stateMutability": "nonpayable",
      "type": "function"
    }
  ],
  "bytecode": "0x60806040523480156200001157600080fd5b5060405162003602380380620036028339810160408190526200003491620000a2565b6200003f3362000052565b60018055600491909155600355620000c7565b600080546001600160a01b038381166001600160a01b0319831681178455604051919092169283917f8be0079c531659141344cd1fd0a4f28419497f9722a3daafe3b4186f6b6457e09190a35050565b60008060408385031215620000b657600080fd5b505080516020909101519092909150565b61352b80620000d76000396000f3fe60806040526004361061012a5760003560e01c80638da5cb5b116100ab578063c788d6de1161006f578063c788d6de1461037c578063d68e13021461039c578063db2f80b7146103b2578063df6e0222146103df578063f2fde38b146103f2578063f40109951461041257600080fd5b80638da5cb5b1461028d5780639d4a2255146102b55780639f31a2be146102e2578063b1c980991461032d578063c4452e061461034f57600080fd5b80635bb0c5d6116100f25780635bb0c5d6146101f457806367626e5d14610214578063715018a6146102345780637541f41c1461024957806378419f611461026d57600080fd5b8063010b58ee1461012f5780630bb9ce331461015157806327c71c7314610187578063455b3070146101a757806355c3fbfb146101d4575b600080fd5b34801561013b57600080fd5b5061014f61014a366004612bf6565b61043f565b005b34801561015d57600080fd5b5061017161016c366004612c18565b610708565b60405161017e9190612c31565b60405180910390f35b34801561019357600080fd5b5061014f6101a2366004612d35565b6108b1565b3480156101b357600080fd5b506101c76101c2366004612bf6565b610f2a565b60405161017e9190612e5b565b3480156101e057600080fd5b5061014f6101ef366004612c18565b610fdc565b34801561020057600080fd5b5061014f61020f366004612e6a565b6110c6565b34801561022057600080fd5b5061014f61022f366004612bf6565b6112d1565b34801561024057600080fd5b5061014f6116da565b34801561025557600080fd5b5061025f60045481565b60405190815260200161017e565b34801561027957600080fd5b5061014f610288366004612bf6565b6116ee565b34801561029957600080fd5b506000546040516001600160a01b03909116815260200161017e565b3480156102c157600080fd5b506102d56102d0366004612c18565b61193e565b60405161017e9190612ef7565b3480156102ee57600080fd5b5061031d6102fd366004612c18565b336000908152600b60209081526040808320938352929052205460ff1690565b604051901515815260200161017e565b34801561033957600080fd5b50610342611a79565b60405161017e9190613062565b34801561035b57600080fd5b5061036f61036a366004612c18565b611e59565b60405161017e91906130c4565b34801561038857600080fd5b5061014f6103973660046130de565b61212d565b3480156103a857600080fd5b5061025f60035481565b3480156103be57600080fd5b506103d26103cd366004612c18565b61244a565b60405161017e919061319d565b61014f6103ed3660046131d5565b6124ac565b3480156103fe57600080fd5b5061014f61040d366004613287565b6127cc565b34801561041e57600080fd5b5061043261042d366004612c18565b612845565b60405161017e91906132b0565b610447612910565b6000828152600660205260408120805483908110610467576104676132f3565b6000918252602080832060408051610100808201835260069095029092018054835260018101548385015260028101546001600160a01b0390811684840152600382015460608501526004820154608085015260059182015460ff808216151560a08701529681048716151560c0860152620100009004909516151560e0840152888652909252922060070154919250339116148061051057506000546001600160a01b031633145b6105575760405162461bcd60e51b8152602060048201526013602482015272556e617574686f72697a656420656e7469747960681b60448201526064015b60405180910390fd5b8060a001511561059e5760405162461bcd60e51b815260206004820152601260248201527120b63932b0b23c9031b432b1b5b2b21034b760711b604482015260640161054e565b6105a6612969565b8160600151106106075760405162461bcd60e51b815260206004820152602660248201527f4e6f7420616c6c6f7765642c20626f6f6b696e672064617465206e6f7420657860448201526518d95959195960d21b606482015260840161054e565b60008381526006602052604090208054600191908490811061062b5761062b6132f3565b906000526020600020906006020160050160026101000a81548160ff021916908315150217905550600060646004548360800151610669919061331f565b6106739190613336565b905060006064600354846080015161068b919061331f565b6106959190613336565b60008681526005602052604090206007015460808501519192506106cf916001600160a01b03909116906106ca908590613358565b612988565b6106ea6106e46000546001600160a01b031690565b83612988565b6106f8836040015182612988565b50505061070460018055565b5050565b60606000805b600084815260066020526040902054811015610780576000848152600660205260409020805482908110610744576107446132f3565b600091825260209091206005600690920201015460ff161561076e578161076a8161336b565b9250505b806107788161336b565b91505061070e565b508067ffffffffffffffff81111561079a5761079a612c7e565b6040519080825280602002602001820160405280156107c3578160200160208202803683370190505b5091506000805b6000858152600660205260409020548110156108a9576000858152600660205260409020805482908110610800576108006132f3565b600091825260209091206005600690920201015460ff161561089757600085815260066020526040902080548290811061083c5761083c6132f3565b60009182526020909120600260069092020101546001600160a01b031684836108648161336b565b945081518110610876576108766132f3565b60200260200101906001600160a01b031690816001600160a01b0316815250505b806108a18161336b565b9150506107ca565b505050919050565b60008781526008602052604090205460ff166109055760405162461bcd60e51b8152602060048201526013602482015272105c185c9d1b595b9d081b9bdd08199bdd5b99606a1b604482015260640161054e565b6000878152600560205260409020600701546001600160a01b031633146109815760405162461bcd60e51b815260206004820152602a60248201527f556e617574686f72697a656420706572736f6e6e656c2c206f776e6572206f6e6044820152691b1e48185b1b1bddd95960b21b606482015260840161054e565b60008651116109c95760405162461bcd60e51b81526020600482015260146024820152734e616d652063616e6e6f7420626520656d70747960601b604482015260640161054e565b6000855111610a1a5760405162461bcd60e51b815260206004820152601b60248201527f4465736372697074696f6e2063616e6e6f7420626520656d7074790000000000604482015260640161054e565b6000845111610a665760405162461bcd60e51b81526020600482015260186024820152774c6f636174696f6e2063616e6e6f7420626520656d70747960401b604482015260640161054e565b6000835111610ab05760405162461bcd60e51b8152602060048201526016602482015275496d616765732063616e6e6f7420626520656d70747960501b604482015260640161054e565b60008211610afb5760405162461bcd60e51b8152602060048201526018602482015277526f6f6d65732063616e6e6f74206265207a65726f28302960401b604482015260640161054e565b60008111610b455760405162461bcd60e51b815260206004820152601760248201527650726963652063616e6e6f74206265207a65726f28302960481b604482015260640161054e565b6000600560008981526020019081526020016000206040518061016001604052908160008201548152602001600182018054610b8090613384565b80601f0160208091040260200160405190810160405280929190818152602001828054610bac90613384565b8015610bf95780601f10610bce57610100808354040283529160200191610bf9565b820191906000526020600020905b815481529060010190602001808311610bdc57829003601f168201915b50505050508152602001600282018054610c1290613384565b80601f0160208091040260200160405190810160405280929190818152602001828054610c3e90613384565b8015610c8b5780601f10610c6057610100808354040283529160200191610c8b565b820191906000526020600020905b815481529060010190602001808311610c6e57829003601f168201915b50505050508152602001600382018054610ca490613384565b80601f0160208091040260200160405190810160405280929190818152602001828054610cd090613384565b8015610d1d5780601f10610cf257610100808354040283529160200191610d1d565b820191906000526020600020905b815481529060010190602001808311610d0057829003601f168201915b50505050508152602001600482018054610d3690613384565b80601f0160208091040260200160405190810160405280929190818152602001828054610d6290613384565b8015610daf5780601f10610d8457610100808354040283529160200191610daf565b820191906000526020600020905b815481529060010190602001808311610d9257829003601f168201915b5050509183525050600582810154602080840191909152600684015460408085019190915260078501546001600160a01b03811660608087019190915260ff600160a01b830481161515608080890191909152600160a81b90930416151560a08088019190915260089097015460c0968701528784018f81528884018f90529088018d90529087018b9052948601899052928501879052845160009081529190522082518155905191925082916001820190610e6b908261340c565b5060408201516002820190610e80908261340c565b5060608201516003820190610e95908261340c565b5060808201516004820190610eaa908261340c565b5060a0820151600582015560c0820151600682015560e08201516007820180546101008501516101208601511515600160a81b0260ff60a81b19911515600160a01b026001600160a81b03199093166001600160a01b03909516949094179190911716919091179055610140909101516008909101555050505050505050565b610f32612b3b565b6000838152600660205260409020805483908110610f5257610f526132f3565b600091825260209182902060408051610100808201835260069094029092018054835260018101549483019490945260028401546001600160a01b031690820152600383015460608201526004830154608082015260059092015460ff808216151560a08501529181048216151560c084015262010000900416151560e082015290505b92915050565b60008181526008602052604090205460ff166110305760405162461bcd60e51b8152602060048201526013602482015272105c185c9d1b595b9d081b9bdd08199bdd5b99606a1b604482015260640161054e565b6000818152600560205260409020600701546001600160a01b031633146110905760405162461bcd60e51b8152602060048201526014602482015273556e617574686f72697a656420656e746974792160601b604482015260640161054e565b6000908152600860209081526040808320805460ff1916905560059091529020600701805460ff60a81b1916600160a81b179055565b60008281526008602052604090205460ff166111245760405162461bcd60e51b815260206004820152601760248201527f41706172746d656e74206e6f7420617661696c61626c65000000000000000000604482015260640161054e565b336000908152600b6020908152604080832085845290915290205460ff1661118e5760405162461bcd60e51b815260206004820152601860248201527f426f6f6b206669727374206265666f7265207265766965770000000000000000604482015260640161054e565b60008151116111df5760405162461bcd60e51b815260206004820152601b60248201527f52657669657720746578742063616e6e6f7420626520656d7074790000000000604482015260640161054e565b61121a6040518060a001604052806000815260200160008152602001606081526020016000815260200160006001600160a01b031681525090565b6020808201849052600084815260079091526040908190205482528101829052611242612969565b6060820152336080820152600083815260076020908152604080832080546001818101835591855293839020855160059095020193845591840151918301919091558201518291906002820190611299908261340c565b5060608201516003820155608090910151600490910180546001600160a01b0319166001600160a01b03909216919091179055505050565b6112d9612910565b60008281526006602052604081208054839081106112f9576112f96132f3565b600091825260209182902060408051610100808201835260069094029092018054835260018101549483019490945260028401546001600160a01b031690820152600383015460608201526004830154608082015260059092015460ff80821615801560a08601529282048116151560c08501526201000090910416151560e08301529091506113de5760405162461bcd60e51b815260206004820152602a60248201527f41706172746d656e7420616c726561647920636865636b656420696e206f6e206044820152697468697320646174652160b01b606482015260840161054e565b6000838152600a602090815260408083206060850151845290915290205460ff1661144b5760405162461bcd60e51b815260206004820152601a60248201527f446964206e6f7420626f6f6b206f6e2074686973206461746521000000000000604482015260640161054e565b6000546001600160a01b031633146115265780604001516001600160a01b0316336001600160a01b0316146114b95760405162461bcd60e51b8152602060048201526014602482015273556e617574686f72697a65642074656e616e742160601b604482015260640161054e565b6114c1612969565b8160600151116115265760405162461bcd60e51b815260206004820152602a60248201527f43616e206e6f206c6f6e67657220726566756e642c20626f6f6b696e672064616044820152691d19481cdd185c9d195960b21b606482015260840161054e565b60008381526006602052604090208054600191908490811061154a5761154a6132f3565b6000918252602080832060056006909302019190910180549315156101000261ff001990941693909317909255848152600a82526040808220606085015183528352808220805460ff191690558582526009909252908120546115af90600190613358565b600085815260096020526040812080549293509091839081106115d4576115d46132f3565b9060005260206000200154905080600960008781526020019081526020016000208581548110611606576116066132f3565b906000526020600020018190555060096000868152602001908152602001600020805480611636576116366134cc565b60019003818190600052602060002001600090559055600060646003548560800151611662919061331f565b61166c9190613336565b9050600061167b600283613336565b6000888152600560205260409020600701549091506116a3906001600160a01b031682612988565b6116be6116b86000546001600160a01b031690565b82612988565b6116cc338660800151612988565b505050505061070460018055565b6116e26129ed565b6116ec6000612a47565b565b6116f6612910565b6000828152600660205260408120805483908110611716576117166132f3565b600091825260209182902060408051610100808201835260069094029092018054835260018101549483019490945260028401546001600160a01b0316908201819052600384015460608301526004840154608083015260059093015460ff808216151560a08401529281048316151560c0830152620100009004909116151560e0820152915033146117e15760405162461bcd60e51b8152602060048201526013602482015272556e617574686f72697a656420456e7469747960681b604482015260640161054e565b8060a00151156118435760405162461bcd60e51b815260206004820152602760248201527f41706172746d656e7420616c726561647920636865636b6564206f6e207468696044820152667320646174652160c81b606482015260840161054e565b600083815260066020526040902080546001919084908110611867576118676132f3565b60009182526020808320600560069093020191909101805493151560ff19948516179055338252600b815260408083208784529091528120805490921660011790915560045460808301516064916118be9161331f565b6118c89190613336565b90506000606460035484608001516118e0919061331f565b6118ea9190613336565b600086815260056020526040902060070154608085015191925061191f916001600160a01b03909116906106ca908590613358565b6119346106e46000546001600160a01b031690565b6106f83382612988565b606060076000838152602001908152602001600020805480602002602001604051908101604052809291908181526020016000905b82821015611a6e57838290600052602060002090600502016040518060a001604052908160008201548152602001600182015481526020016002820180546119ba90613384565b80601f01602080910402602001604051908101604052809291908181526020018280546119e690613384565b8015611a335780601f10611a0857610100808354040283529160200191611a33565b820191906000526020600020905b815481529060010190602001808311611a1657829003601f168201915b505050918352505060038201546020808301919091526004909201546001600160a01b03166040909101529082526001929092019101611973565b505050509050919050565b6060600060015b6002548111611ac957600081815260056020526040902060070154600160a81b900460ff16611ab75781611ab38161336b565b9250505b80611ac18161336b565b915050611a80565b508067ffffffffffffffff811115611ae357611ae3612c7e565b604051908082528060200260200182016040528015611b1c57816020015b611b09612b8f565b815260200190600190039081611b015790505b509150600060015b6002548111611e5357600081815260056020526040902060070154600160a81b900460ff16611e4157600560008281526020019081526020016000206040518061016001604052908160008201548152602001600182018054611b8690613384565b80601f0160208091040260200160405190810160405280929190818152602001828054611bb290613384565b8015611bff5780601f10611bd457610100808354040283529160200191611bff565b820191906000526020600020905b815481529060010190602001808311611be257829003601f168201915b50505050508152602001600282018054611c1890613384565b80601f0160208091040260200160405190810160405280929190818152602001828054611c4490613384565b8015611c915780601f10611c6657610100808354040283529160200191611c91565b820191906000526020600020905b815481529060010190602001808311611c7457829003601f168201915b50505050508152602001600382018054611caa90613384565b80601f0160208091040260200160405190810160405280929190818152602001828054611cd690613384565b8015611d235780601f10611cf857610100808354040283529160200191611d23565b820191906000526020600020905b815481529060010190602001808311611d0657829003601f168201915b50505050508152602001600482018054611d3c90613384565b80601f0160208091040260200160405190810160405280929190818152602001828054611d6890613384565b8015611db55780601f10611d8a57610100808354040283529160200191611db5565b820191906000526020600020905b815481529060010190602001808311611d9857829003601f168201915b5050509183525050600582015460208201526006820154604082015260078201546001600160a01b038116606083015260ff600160a01b8204811615156080840152600160a81b90910416151560a082015260089091015460c0909101528451859084908110611e2757611e276132f3565b60200260200101819052508180611e3d9061336b565b9250505b80611e4b8161336b565b915050611b24565b50505090565b611e61612b8f565b600560008381526020019081526020016000206040518061016001604052908160008201548152602001600182018054611e9a90613384565b80601f0160208091040260200160405190810160405280929190818152602001828054611ec690613384565b8015611f135780601f10611ee857610100808354040283529160200191611f13565b820191906000526020600020905b815481529060010190602001808311611ef657829003601f168201915b50505050508152602001600282018054611f2c90613384565b80601f0160208091040260200160405190810160405280929190818152602001828054611f5890613384565b8015611fa55780601f10611f7a57610100808354040283529160200191611fa5565b820191906000526020600020905b815481529060010190602001808311611f8857829003601f168201915b50505050508152602001600382018054611fbe90613384565b80601f0160208091040260200160405190810160405280929190818152602001828054611fea90613384565b80156120375780601f1061200c57610100808354040283529160200191612037565b820191906000526020600020905b81548152906001019060200180831161201a57829003601f168201915b5050505050815260200160048201805461205090613384565b80601f016020809104026020016040519081016040528092919081815260200182805461207c90613384565b80156120c95780601f1061209e576101008083540402835291602001916120c9565b820191906000526020600020905b8154815290600101906020018083116120ac57829003601f168201915b5050509183525050600582015460208201526006820154604082015260078201546001600160a01b038116606083015260ff600160a01b8204811615156080840152600160a81b90910416151560a082015260089091015460c09091015292915050565b60008651116121755760405162461bcd60e51b81526020600482015260146024820152734e616d652063616e6e6f7420626520656d70747960601b604482015260640161054e565b60008551116121c65760405162461bcd60e51b815260206004820152601b60248201527f4465736372697074696f6e2063616e6e6f7420626520656d7074790000000000604482015260640161054e565b60008451116122125760405162461bcd60e51b81526020600482015260186024820152774c6f636174696f6e2063616e6e6f7420626520656d70747960401b604482015260640161054e565b600083511161225c5760405162461bcd60e51b8152602060048201526016602482015275496d616765732063616e6e6f7420626520656d70747960501b604482015260640161054e565b600082116122a75760405162461bcd60e51b8152602060048201526018602482015277526f6f6d65732063616e6e6f74206265207a65726f28302960401b604482015260640161054e565b600081116122f15760405162461bcd60e51b815260206004820152601760248201527650726963652063616e6e6f74206265207a65726f28302960481b604482015260640161054e565b6122ff600280546001019055565b612307612b8f565b60025481526020810187905260408101869052606081018590526080810184905260a0810183905260c081018290523360e0820152612344612969565b61014082015280516000908152600860209081526040808320805460ff19166001908117909155845184526005835292208351815590830151839282019061238c908261340c565b50604082015160028201906123a1908261340c565b50606082015160038201906123b6908261340c565b50608082015160048201906123cb908261340c565b5060a0820151600582015560c0820151600682015560e08201516007820180546101008501516101208601511515600160a81b0260ff60a81b19911515600160a01b026001600160a81b03199093166001600160a01b039095169490941791909117169190911790556101409091015160089091015550505050505050565b6000818152600960209081526040918290208054835181840281018401909452808452606093928301828280156124a057602002820191906000526020600020905b81548152602001906001019080831161248c575b50505050509050919050565b805160008381526005602052604081206006015490916124cb9161331f565b905060006064600354836124df919061331f565b6124e99190613336565b60008581526008602052604090205490915060ff166125415760405162461bcd60e51b815260206004820152601460248201527341706172746d656e74206e6f7420666f756e642160601b604482015260640161054e565b61254b81836134e2565b34101561259a5760405162461bcd60e51b815260206004820152601b60248201527f496e73756666696369656e742066756e6420737570706c696564210000000000604482015260640161054e565b6125a48484612a97565b6125fb5760405162461bcd60e51b815260206004820152602260248201527f4f6e65206f72206d6f7265206461746573206e6f7420617661696c61626c6573604482015261732160f01b606482015260840161054e565b60005b83518110156127c55761260f612b3b565b600086815260066020908152604091829020548352820187905233908201528451859083908110612642576126426132f3565b60209081029190910181015160608301908152600088815260058084526040808320600690810154608088019081528c85528187528285208054600180820183559187528887208a51919094029093019283558888015190830155828801516002830180546001600160a01b0319166001600160a01b03909216919091179055945160038201559351600485015560a086015193909101805460c087015160e088015161ffff1990921695151561ff00191695909517610100951515959095029490941762ff0000191662010000941515949094029390931790925588815260099092529020855186908490811061273c5761273c6132f3565b602090810291909101810151825460018181018555600094855283852090910191909155888352600a90915260408220875191929091889086908110612784576127846132f3565b6020026020010151815260200190815260200160002060006101000a81548160ff0219169083151502179055505080806127bd9061336b565b9150506125fe565b5050505050565b6127d46129ed565b6001600160a01b0381166128395760405162461bcd60e51b815260206004820152602660248201527f4f776e61626c653a206e6577206f776e657220697320746865207a65726f206160448201526564647265737360d01b606482015260840161054e565b61284281612a47565b50565b606060066000838152602001908152602001600020805480602002602001604051908101604052809291908181526020016000905b82821015611a6e57600084815260209081902060408051610100808201835260068702909301805482526001808201548387015260028201546001600160a01b03169383019390935260038101546060830152600481015460808301526005015460ff808216151560a08401529381048416151560c0830152620100009004909216151560e0830152908352909201910161287a565b6002600154036129625760405162461bcd60e51b815260206004820152601f60248201527f5265656e7472616e637947756172643a207265656e7472616e742063616c6c00604482015260640161054e565b6002600155565b6000612977426103e861331f565b612983906103e86134e2565b905090565b6000826001600160a01b03168260405160006040518083038185875af1925050503d80600081146129d5576040519150601f19603f3d011682016040523d82523d6000602084013e6129da565b606091505b50509050806129e857600080fd5b505050565b6000546001600160a01b031633146116ec5760405162461bcd60e51b815260206004820181905260248201527f4f776e61626c653a2063616c6c6572206973206e6f7420746865206f776e6572604482015260640161054e565b600080546001600160a01b038381166001600160a01b0319831681178455604051919092169283917f8be0079c531659141344cd1fd0a4f28419497f9722a3daafe3b4186f6b6457e09190a35050565b60006001815b8351811015612b335760005b600086815260096020526040902054811015612b20576000868152600960205260409020805482908110612adf57612adf6132f3565b9060005260206000200154858381518110612afc57612afc6132f3565b602002602001015103612b0e57600092505b80612b188161336b565b915050612aa9565b5080612b2b8161336b565b915050612a9d565b509392505050565b604051806101000160405280600081526020016000815260200160006001600160a01b0316815260200160008152602001600081526020016000151581526020016000151581526020016000151581525090565b6040518061016001604052806000815260200160608152602001606081526020016060815260200160608152602001600081526020016000815260200160006001600160a01b03168152602001600015158152602001600015158152602001600081525090565b60008060408385031215612c0957600080fd5b50508035926020909101359150565b600060208284031215612c2a57600080fd5b5035919050565b6020808252825182820181905260009190848201906040850190845b81811015612c725783516001600160a01b031683529284019291840191600101612c4d565b50909695505050505050565b634e487b7160e01b600052604160045260246000fd5b604051601f8201601f1916810167ffffffffffffffff81118282101715612cbd57612cbd612c7e565b604052919050565b600082601f830112612cd657600080fd5b813567ffffffffffffffff811115612cf057612cf0612c7e565b612d03601f8201601f1916602001612c94565b818152846020838601011115612d1857600080fd5b816020850160208301376000918101602001919091529392505050565b600080600080600080600060e0888a031215612d5057600080fd5b87359650602088013567ffffffffffffffff80821115612d6f57600080fd5b612d7b8b838c01612cc5565b975060408a0135915080821115612d9157600080fd5b612d9d8b838c01612cc5565b965060608a0135915080821115612db357600080fd5b612dbf8b838c01612cc5565b955060808a0135915080821115612dd557600080fd5b50612de28a828b01612cc5565b93505060a0880135915060c0880135905092959891949750929550565b805182526020810151602083015260018060a01b036040820151166040830152606081015160608301526080810151608083015260a0810151151560a083015260c0810151151560c083015260e0810151151560e08301525050565b6101008101610fd68284612dff565b60008060408385031215612e7d57600080fd5b82359150602083013567ffffffffffffffff811115612e9b57600080fd5b612ea785828601612cc5565b9150509250929050565b6000815180845260005b81811015612ed757602081850181015186830182015201612ebb565b506000602082860101526020601f19601f83011685010191505092915050565b60006020808301818452808551808352604092508286019150828160051b87010184880160005b83811015612f8757603f19898403018552815160a0815185528882015189860152878201518189870152612f5482870182612eb1565b606084810151908801526080938401516001600160a01b0316939096019290925250509386019390860190600101612f1e565b509098975050505050505050565b6000610160825184526020830151816020860152612fb582860182612eb1565b91505060408301518482036040860152612fcf8282612eb1565b91505060608301518482036060860152612fe98282612eb1565b915050608083015184820360808601526130038282612eb1565b91505060a083015160a085015260c083015160c085015260e083015161303460e08601826001600160a01b03169052565b5061010083810151151590850152610120808401511515908501526101409283015192909301919091525090565b6000602080830181845280855180835260408601915060408160051b870101925083870160005b828110156130b757603f198886030184526130a5858351612f95565b94509285019290850190600101613089565b5092979650505050505050565b6020815260006130d76020830184612f95565b9392505050565b60008060008060008060c087890312156130f757600080fd5b863567ffffffffffffffff8082111561310f57600080fd5b61311b8a838b01612cc5565b9750602089013591508082111561313157600080fd5b61313d8a838b01612cc5565b9650604089013591508082111561315357600080fd5b61315f8a838b01612cc5565b9550606089013591508082111561317557600080fd5b5061318289828a01612cc5565b9350506080870135915060a087013590509295509295509295565b6020808252825182820181905260009190848201906040850190845b81811015612c72578351835292840192918401916001016131b9565b600080604083850312156131e857600080fd5b8235915060208084013567ffffffffffffffff8082111561320857600080fd5b818601915086601f83011261321c57600080fd5b81358181111561322e5761322e612c7e565b8060051b915061323f848301612c94565b818152918301840191848101908984111561325957600080fd5b938501935b838510156132775784358252938501939085019061325e565b8096505050505050509250929050565b60006020828403121561329957600080fd5b81356001600160a01b03811681146130d757600080fd5b6020808252825182820181905260009190848201906040850190845b81811015612c72576132df838551612dff565b9284019261010092909201916001016132cc565b634e487b7160e01b600052603260045260246000fd5b634e487b7160e01b600052601160045260246000fd5b8082028115828204841417610fd657610fd6613309565b60008261335357634e487b7160e01b600052601260045260246000fd5b500490565b81810381811115610fd657610fd6613309565b60006001820161337d5761337d613309565b5060010190565b600181811c9082168061339857607f821691505b6020821081036133b857634e487b7160e01b600052602260045260246000fd5b50919050565b601f8211156129e857600081815260208120601f850160051c810160208610156133e55750805b601f850160051c820191505b81811015613404578281556001016133f1565b505050505050565b815167ffffffffffffffff81111561342657613426612c7e565b61343a816134348454613384565b846133be565b602080601f83116001811461346f57600084156134575750858301515b600019600386901b1c1916600185901b178555613404565b600085815260208120601f198616915b8281101561349e5788860151825594840194600190910190840161347f565b50858210156134bc5787850151600019600388901b60f8161c191681555b5050505050600190811b01905550565b634e487b7160e01b600052603160045260246000fd5b80820180821115610fd657610fd661330956fea26469706673582212209bbd7d6f018090e595889e8730f846d6cf70645999e9c28d15bb39ebf10da86f64736f6c63430008130033",
  "linkReferences": {},
  "deployedLinkReferences": {}
}