{
  "_format": "hh-sol-artifact-1",
  "contractName": "DappBanX",
  "sourceName": "contracts/DappBnbX.sol",
  "abi": [
    {
      "inputs": [
        {
          "internalType": "uint256",
          "name": "_taxPercent",
          "type": "uint256"
        },
        {
          "internalType": "uint256",
          "name": "_securityFee",
          "type": "uint256"
        }
      ],
      "stateMutability": "nonpayable",
      "type": "constructor"
    },
    {
      "anonymous": false,
      "inputs": [
        {
          "indexed": true,
          "internalType": "address",
          "name": "previousOwner",
          "type": "address"
        },
        {
          "indexed": true,
          "internalType": "address",
          "name": "newOwner",
          "type": "address"
        }
      ],
      "name": "OwnershipTransferred",
      "type": "event"
    },
    {
      "inputs": [
        {
          "internalType": "uint256",
          "name": "aid",
          "type": "uint256"
        },
        {
          "internalType": "string",
          "name": "reviewText",
          "type": "string"
        }
      ],
      "name": "addReview",
      "outputs": [],
      "stateMutability": "nonpayable",
      "type": "function"
    },
    {
      "inputs": [
        {
          "internalType": "uint256",
          "name": "aid",
          "type": "uint256"
        },
        {
          "internalType": "uint256[]",
          "name": "dates",
          "type": "uint256[]"
        }
      ],
      "name": "bookApartment",
      "outputs": [],
      "stateMutability": "payable",
      "type": "function"
    },
    {
      "inputs": [
        {
          "internalType": "uint256",
          "name": "aid",
          "type": "uint256"
        },
        {
          "internalType": "uint256",
          "name": "bookingId",
          "type": "uint256"
        }
      ],
      "name": "checkInApartment",
      "outputs": [],
      "stateMutability": "nonpayable",
      "type": "function"
    },
    {
      "inputs": [
        {
          "internalType": "uint256",
          "name": "aid",
          "type": "uint256"
        },
        {
          "internalType": "uint256",
          "name": "bookingId",
          "type": "uint256"
        }
      ],
      "name": "claimFunds",
      "outputs": [],
      "stateMutability": "nonpayable",
      "type": "function"
    },
    {
      "inputs": [
        {
          "internalType": "string",
          "name": "name",
          "type": "string"
        },
        {
          "internalType": "string",
          "name": "description",
          "type": "string"
        },
        {
          "internalType": "string",
          "name": "location",
          "type": "string"
        },
        {
          "internalType": "string",
          "name": "images",
          "type": "string"
        },
        {
          "internalType": "uint256",
          "name": "rooms",
          "type": "uint256"
        },
        {
          "internalType": "uint256",
          "name": "price",
          "type": "uint256"
        },
        {
          "internalType": "string",
          "name": "email",
          "type": "string"
        }
      ],
      "name": "createApartment",
      "outputs": [],
      "stateMutability": "nonpayable",
      "type": "function"
    },
    {
      "inputs": [
        {
          "internalType": "uint256",
          "name": "id",
          "type": "uint256"
        }
      ],
      "name": "deleteApartment",
      "outputs": [],
      "stateMutability": "nonpayable",
      "type": "function"
    },
    {
      "inputs": [
        {
          "internalType": "uint256",
          "name": "id",
          "type": "uint256"
        }
      ],
      "name": "getApartment",
      "outputs": [
        {
          "components": [
            {
              "internalType": "uint256",
              "name": "id",
              "type": "uint256"
            },
            {
              "internalType": "string",
              "name": "name",
              "type": "string"
            },
            {
              "internalType": "string",
              "name": "description",
              "type": "string"
            },
            {
              "internalType": "string",
              "name": "location",
              "type": "string"
            },
            {
              "internalType": "string",
              "name": "images",
              "type": "string"
            },
            {
              "internalType": "uint256",
              "name": "rooms",
              "type": "uint256"
            },
            {
              "internalType": "uint256",
              "name": "price",
              "type": "uint256"
            },
            {
              "internalType": "address",
              "name": "owner",
              "type": "address"
            },
            {
              "internalType": "bool",
              "name": "booked",
              "type": "bool"
            },
            {
              "internalType": "bool",
              "name": "deleted",
              "type": "bool"
            },
            {
              "internalType": "uint256",
              "name": "timestamp",
              "type": "uint256"
            },
            {
              "internalType": "string",
              "name": "email",
              "type": "string"
            }
          ],
          "internalType": "struct DappBanX.ApartmentStruct",
          "name": "",
          "type": "tuple"
        }
      ],
      "stateMutability": "view",
      "type": "function"
    },
    {
      "inputs": [],
      "name": "getApartments",
      "outputs": [
        {
          "components": [
            {
              "internalType": "uint256",
              "name": "id",
              "type": "uint256"
            },
            {
              "internalType": "string",
              "name": "name",
              "type": "string"
            },
            {
              "internalType": "string",
              "name": "description",
              "type": "string"
            },
            {
              "internalType": "string",
              "name": "location",
              "type": "string"
            },
            {
              "internalType": "string",
              "name": "images",
              "type": "string"
            },
            {
              "internalType": "uint256",
              "name": "rooms",
              "type": "uint256"
            },
            {
              "internalType": "uint256",
              "name": "price",
              "type": "uint256"
            },
            {
              "internalType": "address",
              "name": "owner",
              "type": "address"
            },
            {
              "internalType": "bool",
              "name": "booked",
              "type": "bool"
            },
            {
              "internalType": "bool",
              "name": "deleted",
              "type": "bool"
            },
            {
              "internalType": "uint256",
              "name": "timestamp",
              "type": "uint256"
            },
            {
              "internalType": "string",
              "name": "email",
              "type": "string"
            }
          ],
          "internalType": "struct DappBanX.ApartmentStruct[]",
          "name": "Apartments",
          "type": "tuple[]"
        }
      ],
      "stateMutability": "view",
      "type": "function"
    },
    {
      "inputs": [
        {
          "internalType": "uint256",
          "name": "aid",
          "type": "uint256"
        },
        {
          "internalType": "uint256",
          "name": "bookingId",
          "type": "uint256"
        }
      ],
      "name": "getBooking",
      "outputs": [
        {
          "components": [
            {
              "internalType": "uint256",
              "name": "id",
              "type": "uint256"
            },
            {
              "internalType": "uint256",
              "name": "aid",
              "type": "uint256"
            },
            {
              "internalType": "address",
              "name": "tenant",
              "type": "address"
            },
            {
              "internalType": "uint256",
              "name": "date",
              "type": "uint256"
            },
            {
              "internalType": "uint256",
              "name": "price",
              "type": "uint256"
            },
            {
              "internalType": "bool",
              "name": "checked",
              "type": "bool"
            },
            {
              "internalType": "bool",
              "name": "cancelled",
              "type": "bool"
            }
          ],
          "internalType": "struct DappBanX.BookingStruct",
          "name": "",
          "type": "tuple"
        }
      ],
      "stateMutability": "view",
      "type": "function"
    },
    {
      "inputs": [
        {
          "internalType": "uint256",
          "name": "aid",
          "type": "uint256"
        }
      ],
      "name": "getBookings",
      "outputs": [
        {
          "components": [
            {
              "internalType": "uint256",
              "name": "id",
              "type": "uint256"
            },
            {
              "internalType": "uint256",
              "name": "aid",
              "type": "uint256"
            },
            {
              "internalType": "address",
              "name": "tenant",
              "type": "address"
            },
            {
              "internalType": "uint256",
              "name": "date",
              "type": "uint256"
            },
            {
              "internalType": "uint256",
              "name": "price",
              "type": "uint256"
            },
            {
              "internalType": "bool",
              "name": "checked",
              "type": "bool"
            },
            {
              "internalType": "bool",
              "name": "cancelled",
              "type": "bool"
            }
          ],
          "internalType": "struct DappBanX.BookingStruct[]",
          "name": "",
          "type": "tuple[]"
        }
      ],
      "stateMutability": "view",
      "type": "function"
    },
    {
      "inputs": [
        {
          "internalType": "uint256",
          "name": "aid",
          "type": "uint256"
        }
      ],
      "name": "getQualifiedReviewers",
      "outputs": [
        {
          "internalType": "address[]",
          "name": "Tenants",
          "type": "address[]"
        }
      ],
      "stateMutability": "view",
      "type": "function"
    },
    {
      "inputs": [
        {
          "internalType": "uint256",
          "name": "aid",
          "type": "uint256"
        }
      ],
      "name": "getReviews",
      "outputs": [
        {
          "components": [
            {
              "internalType": "uint256",
              "name": "id",
              "type": "uint256"
            },
            {
              "internalType": "uint256",
              "name": "aid",
              "type": "uint256"
            },
            {
              "internalType": "string",
              "name": "reviewText",
              "type": "string"
            },
            {
              "internalType": "uint256",
              "name": "timestamp",
              "type": "uint256"
            },
            {
              "internalType": "address",
              "name": "owner",
              "type": "address"
            }
          ],
          "internalType": "struct DappBanX.ReviewStruct[]",
          "name": "",
          "type": "tuple[]"
        }
      ],
      "stateMutability": "view",
      "type": "function"
    },
    {
      "inputs": [
        {
          "internalType": "uint256",
          "name": "aid",
          "type": "uint256"
        }
      ],
      "name": "getUnavailableDates",
      "outputs": [
        {
          "internalType": "uint256[]",
          "name": "",
          "type": "uint256[]"
        }
      ],
      "stateMutability": "view",
      "type": "function"
    },
    {
      "inputs": [],
      "name": "owner",
      "outputs": [
        {
          "internalType": "address",
          "name": "",
          "type": "address"
        }
      ],
      "stateMutability": "view",
      "type": "function"
    },
    {
      "inputs": [
        {
          "internalType": "uint256",
          "name": "aid",
          "type": "uint256"
        },
        {
          "internalType": "uint256",
          "name": "bookingId",
          "type": "uint256"
        }
      ],
      "name": "refundBooking",
      "outputs": [],
      "stateMutability": "nonpayable",
      "type": "function"
    },
    {
      "inputs": [],
      "name": "renounceOwnership",
      "outputs": [],
      "stateMutability": "nonpayable",
      "type": "function"
    },
    {
      "inputs": [],
      "name": "securityFee",
      "outputs": [
        {
          "internalType": "uint256",
          "name": "",
          "type": "uint256"
        }
      ],
      "stateMutability": "view",
      "type": "function"
    },
    {
      "inputs": [],
      "name": "taxPercent",
      "outputs": [
        {
          "internalType": "uint256",
          "name": "",
          "type": "uint256"
        }
      ],
      "stateMutability": "view",
      "type": "function"
    },
    {
      "inputs": [
        {
          "internalType": "uint256",
          "name": "apartmentId",
          "type": "uint256"
        }
      ],
      "name": "tenantBooked",
      "outputs": [
        {
          "internalType": "bool",
          "name": "",
          "type": "bool"
        }
      ],
      "stateMutability": "view",
      "type": "function"
    },
    {
      "inputs": [
        {
          "internalType": "address",
          "name": "newOwner",
          "type": "address"
        }
      ],
      "name": "transferOwnership",
      "outputs": [],
      "stateMutability": "nonpayable",
      "type": "function"
    },
    {
      "inputs": [
        {
          "internalType": "uint256",
          "name": "id",
          "type": "uint256"
        },
        {
          "internalType": "string",
          "name": "name",
          "type": "string"
        },
        {
          "internalType": "string",
          "name": "description",
          "type": "string"
        },
        {
          "internalType": "string",
          "name": "location",
          "type": "string"
        },
        {
          "internalType": "string",
          "name": "images",
          "type": "string"
        },
        {
          "internalType": "uint256",
          "name": "rooms",
          "type": "uint256"
        },
        {
          "internalType": "uint256",
          "name": "price",
          "type": "uint256"
        },
        {
          "internalType": "string",
          "name": "email",
          "type": "string"
        }
      ],
      "name": "updateApartment",
      "outputs": [],
      "stateMutability": "nonpayable",
      "type": "function"
    }
  ],
  "bytecode": "0x60806040523480156200001157600080fd5b50604051620036da380380620036da8339810160408190526200003491620000a2565b6200003f3362000052565b60018055600491909155600355620000c7565b600080546001600160a01b038381166001600160a01b0319831681178455604051919092169283917f8be0079c531659141344cd1fd0a4f28419497f9722a3daafe3b4186f6b6457e09190a35050565b60008060408385031215620000b657600080fd5b505080516020909101519092909150565b61360380620000d76000396000f3fe60806040526004361061012a5760003560e01c80639d4a2255116100ab578063db2f80b71161006f578063db2f80b714610372578063df6e02221461039f578063f2fde38b146103b2578063f4010995146103d2578063f4b31273146103ff578063f7929e281461041f57600080fd5b80639d4a2255146102955780639f31a2be146102c2578063b1c980991461030d578063c4452e061461032f578063d68e13021461035c57600080fd5b806367626e5d116100f257806367626e5d146101f4578063715018a6146102145780637541f41c1461022957806378419f611461024d5780638da5cb5b1461026d57600080fd5b8063010b58ee1461012f5780630bb9ce3314610151578063455b30701461018757806355c3fbfb146101b45780635bb0c5d6146101d4575b600080fd5b34801561013b57600080fd5b5061014f61014a366004612c32565b61043f565b005b34801561015d57600080fd5b5061017161016c366004612c54565b6105a5565b60405161017e9190612c6d565b60405180910390f35b34801561019357600080fd5b506101a76101a2366004612c32565b61074e565b60405161017e9190612d08565b3480156101c057600080fd5b5061014f6101cf366004612c54565b6107f2565b3480156101e057600080fd5b5061014f6101ef366004612dcd565b6108e0565b34801561020057600080fd5b5061014f61020f366004612c32565b610aeb565b34801561022057600080fd5b5061014f610ea0565b34801561023557600080fd5b5061023f60045481565b60405190815260200161017e565b34801561025957600080fd5b5061014f610268366004612c32565b610eb4565b34801561027957600080fd5b506000546040516001600160a01b03909116815260200161017e565b3480156102a157600080fd5b506102b56102b0366004612c54565b6110b9565b60405161017e9190612e5a565b3480156102ce57600080fd5b506102fd6102dd366004612c54565b336000908152600b60209081526040808320938352929052205460ff1690565b604051901515815260200161017e565b34801561031957600080fd5b506103226111f4565b60405161017e9190612fdf565b34801561033b57600080fd5b5061034f61034a366004612c54565b611665565b60405161017e9190613041565b34801561036857600080fd5b5061023f60035481565b34801561037e57600080fd5b5061039261038d366004612c54565b6119cf565b60405161017e919061305b565b61014f6103ad366004613093565b611a31565b3480156103be57600080fd5b5061014f6103cd366004613145565b611d31565b3480156103de57600080fd5b506103f26103ed366004612c54565b611daa565b60405161017e919061316e565b34801561040b57600080fd5b5061014f61041a3660046131b0565b611e65565b34801561042b57600080fd5b5061014f61043a36600461329f565b6125c7565b6000828152600560205260409020600701546001600160a01b031633146104a35760405162461bcd60e51b8152602060048201526013602482015272556e617574686f72697a656420656e7469747960681b60448201526064015b60405180910390fd5b60008281526006602052604090208054829081106104c3576104c3613384565b600091825260209091206005600690920201015460ff16156104f75760405162461bcd60e51b815260040161049a9061339a565b600082815260066020526040812080548390811061051757610517613384565b9060005260206000209060060201600401549050600060646004548361053d91906133f7565b610547919061340e565b600085815260056020526040902060070154909150610578906001600160a01b03166105738385613430565b612954565b61059361058d6000546001600160a01b031690565b82612954565b61059f33600354612954565b50505050565b60606000805b60008481526006602052604090205481101561061d5760008481526006602052604090208054829081106105e1576105e1613384565b600091825260209091206005600690920201015460ff161561060b578161060781613443565b9250505b8061061581613443565b9150506105ab565b508067ffffffffffffffff81111561063757610637612d16565b604051908082528060200260200182016040528015610660578160200160208202803683370190505b5091506000805b60008581526006602052604090205481101561074657600085815260066020526040902080548290811061069d5761069d613384565b600091825260209091206005600690920201015460ff16156107345760008581526006602052604090208054829081106106d9576106d9613384565b60009182526020909120600260069092020101546001600160a01b0316848361070181613443565b94508151811061071357610713613384565b60200260200101906001600160a01b031690816001600160a01b0316815250505b8061073e81613443565b915050610667565b505050919050565b610756612b7a565b600083815260066020526040902080548390811061077657610776613384565b60009182526020918290206040805160e08101825260069093029091018054835260018101549383019390935260028301546001600160a01b031690820152600382015460608201526004820154608082015260059091015460ff808216151560a084015261010090910416151560c082015290505b92915050565b60008181526008602052604090205460ff16151560011461084b5760405162461bcd60e51b8152602060048201526013602482015272105c185c9d1b595b9d081b9bdd08199bdd5b99606a1b604482015260640161049a565b6000818152600560205260409020600701546001600160a01b031633146108aa5760405162461bcd60e51b8152602060048201526013602482015272556e617574686f72697a656420656e7469747960681b604482015260640161049a565b6000908152600860209081526040808320805460ff1916905560059091529020600701805460ff60a81b1916600160a81b179055565b60008281526008602052604090205460ff1661093e5760405162461bcd60e51b815260206004820152601760248201527f41706172746d656e74206e6f7420617661696c61626c65000000000000000000604482015260640161049a565b336000908152600b6020908152604080832085845290915290205460ff166109a85760405162461bcd60e51b815260206004820152601860248201527f426f6f6b206669727374206265666f7265207265766965770000000000000000604482015260640161049a565b60008151116109f95760405162461bcd60e51b815260206004820152601b60248201527f52657669657720746578742063616e6e6f7420626520656d7074790000000000604482015260640161049a565b610a346040518060a001604052806000815260200160008152602001606081526020016000815260200160006001600160a01b031681525090565b6020808201849052600084815260079091526040908190205482528101829052610a5c6129b4565b6060820152336080820152600083815260076020908152604080832080546001818101835591855293839020855160059095020193845591840151918301919091558201518291906002820190610ab390826134e4565b5060608201516003820155608090910151600490910180546001600160a01b0319166001600160a01b03909216919091179055505050565b610af36129d3565b6000828152600660205260408120805483908110610b1357610b13613384565b60009182526020918290206040805160e08101825260069093029091018054835260018101549383019390935260028301546001600160a01b031690820152600382015460608201526004820154608082015260059091015460ff80821615801560a085015261010090920416151560c0830152909150610ba65760405162461bcd60e51b815260040161049a9061339a565b6000838152600a602090815260408083206060850151845290915290205460ff16610c135760405162461bcd60e51b815260206004820152601a60248201527f446964206e6f7420626f6f6b206f6e2074686973206461746521000000000000604482015260640161049a565b6000546001600160a01b03163314610cee5780604001516001600160a01b0316336001600160a01b031614610c815760405162461bcd60e51b8152602060048201526014602482015273556e617574686f72697a65642074656e616e742160601b604482015260640161049a565b610c896129b4565b816060015111610cee5760405162461bcd60e51b815260206004820152602a60248201527f43616e206e6f206c6f6e67657220726566756e642c20626f6f6b696e672064616044820152691d19481cdd185c9d195960b21b606482015260840161049a565b600083815260066020526040902080546001919084908110610d1257610d12613384565b6000918252602080832060056006909302019190910180549315156101000261ff001990941693909317909255848152600a82526040808220606085015183528352808220805460ff19169055858252600990925290812054610d7790600190613430565b60008581526009602052604081208054929350909183908110610d9c57610d9c613384565b9060005260206000200154905080600960008781526020019081526020016000208581548110610dce57610dce613384565b906000526020600020018190555060096000868152602001908152602001600020805480610dfe57610dfe6135a4565b60019003818190600052602060002001600090559055600060646003548560800151610e2a91906133f7565b610e34919061340e565b90506000610e4360028361340e565b600088815260056020526040902060070154909150610e6b906001600160a01b031682612954565b610e8061058d6000546001600160a01b031690565b610e8e338660800151612954565b5050505050610e9c60018055565b5050565b610ea8612a2c565b610eb26000612a86565b565b6000828152600660205260408120805483908110610ed457610ed4613384565b60009182526020918290206040805160e08101825260069093029091018054835260018101549383019390935260028301546001600160a01b0316908201819052600383015460608301526004830154608083015260059092015460ff808216151560a084015261010090910416151560c082015291503314610f905760405162461bcd60e51b8152602060048201526014602482015273556e617574686f72697a65642074656e616e742160601b604482015260640161049a565b8060a0015115610fb25760405162461bcd60e51b815260040161049a9061339a565b600083815260066020526040902080546001919084908110610fd657610fd6613384565b60009182526020822060069190910201600501805460ff191692151592909217909155600454608083015160649161100d916133f7565b611017919061340e565b905060006064600354846080015161102f91906133f7565b611039919061340e565b336000908152600b602090815260408083208984528252808320805460ff191660011790556005909152902060070154608085015191925061108d916001600160a01b039190911690610573908590613430565b6110a86110a26000546001600160a01b031690565b83612954565b6110b23382612954565b5050505050565b606060076000838152602001908152602001600020805480602002602001604051908101604052809291908181526020016000905b828210156111e957838290600052602060002090600502016040518060a001604052908160008201548152602001600182015481526020016002820180546111359061345c565b80601f01602080910402602001604051908101604052809291908181526020018280546111619061345c565b80156111ae5780601f10611183576101008083540402835291602001916111ae565b820191906000526020600020905b81548152906001019060200180831161119157829003601f168201915b505050918352505060038201546020808301919091526004909201546001600160a01b031660409091015290825260019290920191016110ee565b505050509050919050565b6060600060015b600254811161124457600081815260056020526040902060070154600160a81b900460ff16611232578161122e81613443565b9250505b8061123c81613443565b9150506111fb565b508067ffffffffffffffff81111561125e5761125e612d16565b60405190808252806020026020018201604052801561129757816020015b611284612bc4565b81526020019060019003908161127c5790505b509150600060015b600254811161165f57600081815260056020526040902060070154600160a81b900460ff1661164d576005600082815260200190815260200160002060405180610180016040529081600082015481526020016001820180546113019061345c565b80601f016020809104026020016040519081016040528092919081815260200182805461132d9061345c565b801561137a5780601f1061134f5761010080835404028352916020019161137a565b820191906000526020600020905b81548152906001019060200180831161135d57829003601f168201915b505050505081526020016002820180546113939061345c565b80601f01602080910402602001604051908101604052809291908181526020018280546113bf9061345c565b801561140c5780601f106113e15761010080835404028352916020019161140c565b820191906000526020600020905b8154815290600101906020018083116113ef57829003601f168201915b505050505081526020016003820180546114259061345c565b80601f01602080910402602001604051908101604052809291908181526020018280546114519061345c565b801561149e5780601f106114735761010080835404028352916020019161149e565b820191906000526020600020905b81548152906001019060200180831161148157829003601f168201915b505050505081526020016004820180546114b79061345c565b80601f01602080910402602001604051908101604052809291908181526020018280546114e39061345c565b80156115305780601f1061150557610100808354040283529160200191611530565b820191906000526020600020905b81548152906001019060200180831161151357829003601f168201915b5050509183525050600582015460208201526006820154604082015260078201546001600160a01b038116606083015260ff600160a01b8204811615156080840152600160a81b90910416151560a0820152600882015460c082015260098201805460e0909201916115a19061345c565b80601f01602080910402602001604051908101604052809291908181526020018280546115cd9061345c565b801561161a5780601f106115ef5761010080835404028352916020019161161a565b820191906000526020600020905b8154815290600101906020018083116115fd57829003601f168201915b50505050508152505084838061162f90613443565b94508151811061164157611641613384565b60200260200101819052505b8061165781613443565b91505061129f565b50505090565b61166d612bc4565b6005600083815260200190815260200160002060405180610180016040529081600082015481526020016001820180546116a69061345c565b80601f01602080910402602001604051908101604052809291908181526020018280546116d29061345c565b801561171f5780601f106116f45761010080835404028352916020019161171f565b820191906000526020600020905b81548152906001019060200180831161170257829003601f168201915b505050505081526020016002820180546117389061345c565b80601f01602080910402602001604051908101604052809291908181526020018280546117649061345c565b80156117b15780601f10611786576101008083540402835291602001916117b1565b820191906000526020600020905b81548152906001019060200180831161179457829003601f168201915b505050505081526020016003820180546117ca9061345c565b80601f01602080910402602001604051908101604052809291908181526020018280546117f69061345c565b80156118435780601f1061181857610100808354040283529160200191611843565b820191906000526020600020905b81548152906001019060200180831161182657829003601f168201915b5050505050815260200160048201805461185c9061345c565b80601f01602080910402602001604051908101604052809291908181526020018280546118889061345c565b80156118d55780601f106118aa576101008083540402835291602001916118d5565b820191906000526020600020905b8154815290600101906020018083116118b857829003601f168201915b5050509183525050600582015460208201526006820154604082015260078201546001600160a01b038116606083015260ff600160a01b8204811615156080840152600160a81b90910416151560a0820152600882015460c082015260098201805460e0909201916119469061345c565b80601f01602080910402602001604051908101604052809291908181526020018280546119729061345c565b80156119bf5780601f10611994576101008083540402835291602001916119bf565b820191906000526020600020905b8154815290600101906020018083116119a257829003601f168201915b5050505050815250509050919050565b600081815260096020908152604091829020805483518184028101840190945280845260609392830182828015611a2557602002820191906000526020600020905b815481526020019060010190808311611a11575b50505050509050919050565b60008281526008602052604090205460ff16611a865760405162461bcd60e51b815260206004820152601460248201527341706172746d656e74206e6f7420666f756e642160601b604482015260640161049a565b600354815160008481526005602052604090206006015460649291611aaa916133f7565b611ab491906133f7565b611abe919061340e565b8151600084815260056020526040902060060154611adc91906133f7565b611ae691906135ba565b341015611b2a5760405162461bcd60e51b8152602060048201526012602482015271496e73756666696369656e742066756e642160701b604482015260640161049a565b611b348282612ad6565b611b805760405162461bcd60e51b815260206004820152601e60248201527f426f6f6b6564206461746520666f756e6420616d6f6e67206461746573210000604482015260640161049a565b60005b8151811015611d2c57611b94612b7a565b60208082018590526000858152600690915260409081902054825233908201528251839083908110611bc857611bc8613384565b60209081029190910181015160608301908152600086815260058084526040808320600690810154608088019081528a85528187528285208054600181810183559187528887208a51919094029093019283558888015183820155838901516002840180546001600160a01b039092166001600160a01b03199092169190911790559551600383015551600482015560a08701519201805460c088015115156101000261ff00199415159490941661ffff199091161792909217909155878252600a909352918220855191929091869086908110611ca857611ca8613384565b6020026020010151815260200190815260200160002060006101000a81548160ff02191690831515021790555060096000858152602001908152602001600020838381518110611cfa57611cfa613384565b602090810291909101810151825460018101845560009384529190922001555080611d2481613443565b915050611b83565b505050565b611d39612a2c565b6001600160a01b038116611d9e5760405162461bcd60e51b815260206004820152602660248201527f4f776e61626c653a206e6577206f776e657220697320746865207a65726f206160448201526564647265737360d01b606482015260840161049a565b611da781612a86565b50565b606060066000838152602001908152602001600020805480602002602001604051908101604052809291908181526020016000905b828210156111e95760008481526020908190206040805160e08101825260068602909201805483526001808201548486015260028201546001600160a01b03169284019290925260038101546060840152600481015460808401526005015460ff808216151560a085015261010090910416151560c08301529083529092019101611ddf565b60008881526008602052604090205460ff161515600114611ebe5760405162461bcd60e51b8152602060048201526013602482015272105c185c9d1b595b9d081b9bdd08199bdd5b99606a1b604482015260640161049a565b6000888152600560205260409020600701546001600160a01b03163314611f325760405162461bcd60e51b815260206004820152602260248201527f556e617574686f72697a656420706572736f6e6e656c2c206f776e6572206f6e6044820152616c7960f01b606482015260840161049a565b6000875111611f7a5760405162461bcd60e51b81526020600482015260146024820152734e616d652063616e6e6f7420626520656d70747960601b604482015260640161049a565b6000865111611fcb5760405162461bcd60e51b815260206004820152601b60248201527f4465736372697074696f6e2063616e6e6f7420626520656d7074790000000000604482015260640161049a565b60008551116120175760405162461bcd60e51b81526020600482015260186024820152774c6f636174696f6e2063616e6e6f7420626520656d70747960401b604482015260640161049a565b60008451116120615760405162461bcd60e51b8152602060048201526016602482015275496d616765732063616e6e6f7420626520656d70747960501b604482015260640161049a565b60008151116120aa5760405162461bcd60e51b8152602060048201526015602482015274456d61696c2063616e6e6f7420626520656d70747960581b604482015260640161049a565b600083116120f15760405162461bcd60e51b8152602060048201526014602482015273526f6f6d732063616e6e6f74206265207a65726f60601b604482015260640161049a565b600082116121385760405162461bcd60e51b815260206004820152601460248201527350726963652063616e6e6f74206265207a65726f60601b604482015260640161049a565b6000600560008a815260200190815260200160002060405180610180016040529081600082015481526020016001820180546121739061345c565b80601f016020809104026020016040519081016040528092919081815260200182805461219f9061345c565b80156121ec5780601f106121c1576101008083540402835291602001916121ec565b820191906000526020600020905b8154815290600101906020018083116121cf57829003601f168201915b505050505081526020016002820180546122059061345c565b80601f01602080910402602001604051908101604052809291908181526020018280546122319061345c565b801561227e5780601f106122535761010080835404028352916020019161227e565b820191906000526020600020905b81548152906001019060200180831161226157829003601f168201915b505050505081526020016003820180546122979061345c565b80601f01602080910402602001604051908101604052809291908181526020018280546122c39061345c565b80156123105780601f106122e557610100808354040283529160200191612310565b820191906000526020600020905b8154815290600101906020018083116122f357829003601f168201915b505050505081526020016004820180546123299061345c565b80601f01602080910402602001604051908101604052809291908181526020018280546123559061345c565b80156123a25780601f10612377576101008083540402835291602001916123a2565b820191906000526020600020905b81548152906001019060200180831161238557829003601f168201915b5050509183525050600582015460208201526006820154604082015260078201546001600160a01b038116606083015260ff600160a01b8204811615156080840152600160a81b90910416151560a0820152600882015460c082015260098201805460e0909201916124139061345c565b80601f016020809104026020016040519081016040528092919081815260200182805461243f9061345c565b801561248c5780601f106124615761010080835404028352916020019161248c565b820191906000526020600020905b81548152906001019060200180831161246f57829003601f168201915b5050509190925250505060208082018a815260408084018b9052606084018a90526080840189905260a0840188905260c08401879052610160840186905260008d81526005909352909120825181559051919250829160018201906124f190826134e4565b506040820151600282019061250690826134e4565b506060820151600382019061251b90826134e4565b506080820151600482019061253090826134e4565b5060a0820151600582015560c0820151600682015560e08201516007820180546101008501516101208601511515600160a81b0260ff60a81b19911515600160a01b026001600160a81b03199093166001600160a01b03909516949094179190911716919091179055610140820151600882015561016082015160098201906125b990826134e4565b505050505050505050505050565b600087511161260f5760405162461bcd60e51b81526020600482015260146024820152734e616d652063616e6e6f7420626520656d70747960601b604482015260640161049a565b60008651116126605760405162461bcd60e51b815260206004820152601b60248201527f4465736372697074696f6e2063616e6e6f7420626520656d7074790000000000604482015260640161049a565b60008551116126ac5760405162461bcd60e51b81526020600482015260186024820152774c6f636174696f6e2063616e6e6f7420626520656d70747960401b604482015260640161049a565b60008451116126f65760405162461bcd60e51b8152602060048201526016602482015275496d616765732063616e6e6f7420626520656d70747960501b604482015260640161049a565b600081511161273f5760405162461bcd60e51b8152602060048201526015602482015274456d61696c2063616e6e6f7420626520656d70747960581b604482015260640161049a565b600083116127865760405162461bcd60e51b8152602060048201526014602482015273526f6f6d732063616e6e6f74206265207a65726f60601b604482015260640161049a565b600082116127cd5760405162461bcd60e51b815260206004820152601460248201527350726963652063616e6e6f74206265207a65726f60601b604482015260640161049a565b6127db600280546001019055565b6127e3612bc4565b60025481526020810188905260408101879052606081018690526080810185905260a0810184905260c081018390523360e08201526128206129b4565b610140820152610160810182905280516000908152600860205260408120805460ff19166001179055819060059061285760025490565b81526020808201929092526040016000208251815590820151600182019061287f90826134e4565b506040820151600282019061289490826134e4565b50606082015160038201906128a990826134e4565b50608082015160048201906128be90826134e4565b5060a0820151600582015560c0820151600682015560e08201516007820180546101008501516101208601511515600160a81b0260ff60a81b19911515600160a01b026001600160a81b03199093166001600160a01b039095169490941791909117169190911790556101408201516008820155610160820151600982019061294790826134e4565b5050505050505050505050565b6000826001600160a01b03168260405160006040518083038185875af1925050503d80600081146129a1576040519150601f19603f3d011682016040523d82523d6000602084013e6129a6565b606091505b5050905080611d2c57600080fd5b60006129c2426103e86133f7565b6129ce906103e86135ba565b905090565b600260015403612a255760405162461bcd60e51b815260206004820152601f60248201527f5265656e7472616e637947756172643a207265656e7472616e742063616c6c00604482015260640161049a565b6002600155565b6000546001600160a01b03163314610eb25760405162461bcd60e51b815260206004820181905260248201527f4f776e61626c653a2063616c6c6572206973206e6f7420746865206f776e6572604482015260640161049a565b600080546001600160a01b038381166001600160a01b0319831681178455604051919092169283917f8be0079c531659141344cd1fd0a4f28419497f9722a3daafe3b4186f6b6457e09190a35050565b60006001815b8351811015612b725760005b600086815260096020526040902054811015612b5f576000868152600960205260409020805482908110612b1e57612b1e613384565b9060005260206000200154858381518110612b3b57612b3b613384565b602002602001015103612b4d57600092505b80612b5781613443565b915050612ae8565b5080612b6a81613443565b915050612adc565b509392505050565b6040518060e00160405280600081526020016000815260200160006001600160a01b0316815260200160008152602001600081526020016000151581526020016000151581525090565b6040518061018001604052806000815260200160608152602001606081526020016060815260200160608152602001600081526020016000815260200160006001600160a01b0316815260200160001515815260200160001515815260200160008152602001606081525090565b60008060408385031215612c4557600080fd5b50508035926020909101359150565b600060208284031215612c6657600080fd5b5035919050565b6020808252825182820181905260009190848201906040850190845b81811015612cae5783516001600160a01b031683529284019291840191600101612c89565b50909695505050505050565b80518252602080820151908301526040808201516001600160a01b031690830152606080820151908301526080808201519083015260a08082015115159083015260c0908101511515910152565b60e081016107ec8284612cba565b634e487b7160e01b600052604160045260246000fd5b604051601f8201601f1916810167ffffffffffffffff81118282101715612d5557612d55612d16565b604052919050565b600082601f830112612d6e57600080fd5b813567ffffffffffffffff811115612d8857612d88612d16565b612d9b601f8201601f1916602001612d2c565b818152846020838601011115612db057600080fd5b816020850160208301376000918101602001919091529392505050565b60008060408385031215612de057600080fd5b82359150602083013567ffffffffffffffff811115612dfe57600080fd5b612e0a85828601612d5d565b9150509250929050565b6000815180845260005b81811015612e3a57602081850181015186830182015201612e1e565b506000602082860101526020601f19601f83011685010191505092915050565b60006020808301818452808551808352604092508286019150828160051b87010184880160005b83811015612eea57603f19898403018552815160a0815185528882015189860152878201518189870152612eb782870182612e14565b606084810151908801526080938401516001600160a01b0316939096019290925250509386019390860190600101612e81565b509098975050505050505050565b6000610180825184526020830151816020860152612f1882860182612e14565b91505060408301518482036040860152612f328282612e14565b91505060608301518482036060860152612f4c8282612e14565b91505060808301518482036080860152612f668282612e14565b91505060a083015160a085015260c083015160c085015260e0830151612f9760e08601826001600160a01b03169052565b50610100838101511515908501526101208084015115159085015261014080840151908501526101608084015185830382870152612fd58382612e14565b9695505050505050565b6000602080830181845280855180835260408601915060408160051b870101925083870160005b8281101561303457603f19888603018452613022858351612ef8565b94509285019290850190600101613006565b5092979650505050505050565b6020815260006130546020830184612ef8565b9392505050565b6020808252825182820181905260009190848201906040850190845b81811015612cae57835183529284019291840191600101613077565b600080604083850312156130a657600080fd5b8235915060208084013567ffffffffffffffff808211156130c657600080fd5b818601915086601f8301126130da57600080fd5b8135818111156130ec576130ec612d16565b8060051b91506130fd848301612d2c565b818152918301840191848101908984111561311757600080fd5b938501935b838510156131355784358252938501939085019061311c565b8096505050505050509250929050565b60006020828403121561315757600080fd5b81356001600160a01b038116811461305457600080fd5b6020808252825182820181905260009190848201906040850190845b81811015612cae5761319d838551612cba565b9284019260e0929092019160010161318a565b600080600080600080600080610100898b0312156131cd57600080fd5b88359750602089013567ffffffffffffffff808211156131ec57600080fd5b6131f88c838d01612d5d565b985060408b013591508082111561320e57600080fd5b61321a8c838d01612d5d565b975060608b013591508082111561323057600080fd5b61323c8c838d01612d5d565b965060808b013591508082111561325257600080fd5b61325e8c838d01612d5d565b955060a08b0135945060c08b0135935060e08b013591508082111561328257600080fd5b5061328f8b828c01612d5d565b9150509295985092959890939650565b600080600080600080600060e0888a0312156132ba57600080fd5b873567ffffffffffffffff808211156132d257600080fd5b6132de8b838c01612d5d565b985060208a01359150808211156132f457600080fd5b6133008b838c01612d5d565b975060408a013591508082111561331657600080fd5b6133228b838c01612d5d565b965060608a013591508082111561333857600080fd5b6133448b838c01612d5d565b955060808a0135945060a08a0135935060c08a013591508082111561336857600080fd5b506133758a828b01612d5d565b91505092959891949750929550565b634e487b7160e01b600052603260045260246000fd5b60208082526027908201527f41706172746d656e7420616c726561647920636865636b6564206f6e207468696040820152667320646174652160c81b606082015260800190565b634e487b7160e01b600052601160045260246000fd5b80820281158282048414176107ec576107ec6133e1565b60008261342b57634e487b7160e01b600052601260045260246000fd5b500490565b818103818111156107ec576107ec6133e1565b600060018201613455576134556133e1565b5060010190565b600181811c9082168061347057607f821691505b60208210810361349057634e487b7160e01b600052602260045260246000fd5b50919050565b601f821115611d2c57600081815260208120601f850160051c810160208610156134bd5750805b601f850160051c820191505b818110156134dc578281556001016134c9565b505050505050565b815167ffffffffffffffff8111156134fe576134fe612d16565b6135128161350c845461345c565b84613496565b602080601f831160018114613547576000841561352f5750858301515b600019600386901b1c1916600185901b1785556134dc565b600085815260208120601f198616915b8281101561357657888601518255948401946001909101908401613557565b50858210156135945787850151600019600388901b60f8161c191681555b5050505050600190811b01905550565b634e487b7160e01b600052603160045260246000fd5b808201808211156107ec576107ec6133e156fea264697066735822122028ef01112648520632507178927ef2c6f6c998c9f55b873166f14ac97cdff02664736f6c63430008130033",
  "linkReferences": {},
  "deployedLinkReferences": {}
}