{
  "_format": "hh-sol-artifact-1",
  "contractName": "DappBanX",
  "sourceName": "contracts/DappBnbX.sol",
  "abi": [
    {
      "inputs": [
        {
          "internalType": "uint256",
          "name": "_taxPercent",
          "type": "uint256"
        },
        {
          "internalType": "uint256",
          "name": "_securityFee",
          "type": "uint256"
        }
      ],
      "stateMutability": "nonpayable",
      "type": "constructor"
    },
    {
      "anonymous": false,
      "inputs": [
        {
          "indexed": true,
          "internalType": "address",
          "name": "previousOwner",
          "type": "address"
        },
        {
          "indexed": true,
          "internalType": "address",
          "name": "newOwner",
          "type": "address"
        }
      ],
      "name": "OwnershipTransferred",
      "type": "event"
    },
    {
      "inputs": [
        {
          "internalType": "uint256",
          "name": "aid",
          "type": "uint256"
        },
        {
          "internalType": "string",
          "name": "reviewText",
          "type": "string"
        }
      ],
      "name": "addReview",
      "outputs": [],
      "stateMutability": "nonpayable",
      "type": "function"
    },
    {
      "inputs": [
        {
          "internalType": "uint256",
          "name": "aid",
          "type": "uint256"
        },
        {
          "internalType": "uint256[]",
          "name": "dates",
          "type": "uint256[]"
        }
      ],
      "name": "bookApartment",
      "outputs": [],
      "stateMutability": "payable",
      "type": "function"
    },
    {
      "inputs": [
        {
          "internalType": "uint256",
          "name": "aid",
          "type": "uint256"
        },
        {
          "internalType": "uint256",
          "name": "bookingId",
          "type": "uint256"
        }
      ],
      "name": "checkInApartment",
      "outputs": [],
      "stateMutability": "nonpayable",
      "type": "function"
    },
    {
      "inputs": [
        {
          "internalType": "uint256",
          "name": "aid",
          "type": "uint256"
        },
        {
          "internalType": "uint256",
          "name": "bookingId",
          "type": "uint256"
        }
      ],
      "name": "claimFunds",
      "outputs": [],
      "stateMutability": "nonpayable",
      "type": "function"
    },
    {
      "inputs": [
        {
          "internalType": "string",
          "name": "name",
          "type": "string"
        },
        {
          "internalType": "string",
          "name": "description",
          "type": "string"
        },
        {
          "internalType": "string",
          "name": "location",
          "type": "string"
        },
        {
          "internalType": "string",
          "name": "images",
          "type": "string"
        },
        {
          "internalType": "uint256",
          "name": "rooms",
          "type": "uint256"
        },
        {
          "internalType": "uint256",
          "name": "price",
          "type": "uint256"
        }
      ],
      "name": "createApartment",
      "outputs": [],
      "stateMutability": "nonpayable",
      "type": "function"
    },
    {
      "inputs": [
        {
          "internalType": "uint256",
          "name": "id",
          "type": "uint256"
        }
      ],
      "name": "deleteApartment",
      "outputs": [],
      "stateMutability": "nonpayable",
      "type": "function"
    },
    {
      "inputs": [
        {
          "internalType": "uint256",
          "name": "id",
          "type": "uint256"
        }
      ],
      "name": "getApartment",
      "outputs": [
        {
          "components": [
            {
              "internalType": "uint256",
              "name": "id",
              "type": "uint256"
            },
            {
              "internalType": "string",
              "name": "name",
              "type": "string"
            },
            {
              "internalType": "string",
              "name": "description",
              "type": "string"
            },
            {
              "internalType": "string",
              "name": "location",
              "type": "string"
            },
            {
              "internalType": "string",
              "name": "images",
              "type": "string"
            },
            {
              "internalType": "uint256",
              "name": "rooms",
              "type": "uint256"
            },
            {
              "internalType": "uint256",
              "name": "price",
              "type": "uint256"
            },
            {
              "internalType": "address",
              "name": "owner",
              "type": "address"
            },
            {
              "internalType": "bool",
              "name": "booked",
              "type": "bool"
            },
            {
              "internalType": "bool",
              "name": "deleted",
              "type": "bool"
            },
            {
              "internalType": "uint256",
              "name": "timestamp",
              "type": "uint256"
            }
          ],
          "internalType": "struct DappBanX.ApartmentStruct",
          "name": "",
          "type": "tuple"
        }
      ],
      "stateMutability": "view",
      "type": "function"
    },
    {
      "inputs": [],
      "name": "getApartments",
      "outputs": [
        {
          "components": [
            {
              "internalType": "uint256",
              "name": "id",
              "type": "uint256"
            },
            {
              "internalType": "string",
              "name": "name",
              "type": "string"
            },
            {
              "internalType": "string",
              "name": "description",
              "type": "string"
            },
            {
              "internalType": "string",
              "name": "location",
              "type": "string"
            },
            {
              "internalType": "string",
              "name": "images",
              "type": "string"
            },
            {
              "internalType": "uint256",
              "name": "rooms",
              "type": "uint256"
            },
            {
              "internalType": "uint256",
              "name": "price",
              "type": "uint256"
            },
            {
              "internalType": "address",
              "name": "owner",
              "type": "address"
            },
            {
              "internalType": "bool",
              "name": "booked",
              "type": "bool"
            },
            {
              "internalType": "bool",
              "name": "deleted",
              "type": "bool"
            },
            {
              "internalType": "uint256",
              "name": "timestamp",
              "type": "uint256"
            }
          ],
          "internalType": "struct DappBanX.ApartmentStruct[]",
          "name": "Apartments",
          "type": "tuple[]"
        }
      ],
      "stateMutability": "view",
      "type": "function"
    },
    {
      "inputs": [
        {
          "internalType": "uint256",
          "name": "aid",
          "type": "uint256"
        },
        {
          "internalType": "uint256",
          "name": "bookingId",
          "type": "uint256"
        }
      ],
      "name": "getBooking",
      "outputs": [
        {
          "components": [
            {
              "internalType": "uint256",
              "name": "id",
              "type": "uint256"
            },
            {
              "internalType": "uint256",
              "name": "aid",
              "type": "uint256"
            },
            {
              "internalType": "address",
              "name": "tenant",
              "type": "address"
            },
            {
              "internalType": "uint256",
              "name": "date",
              "type": "uint256"
            },
            {
              "internalType": "uint256",
              "name": "price",
              "type": "uint256"
            },
            {
              "internalType": "bool",
              "name": "checked",
              "type": "bool"
            },
            {
              "internalType": "bool",
              "name": "cancelled",
              "type": "bool"
            }
          ],
          "internalType": "struct DappBanX.BookingStruct",
          "name": "",
          "type": "tuple"
        }
      ],
      "stateMutability": "view",
      "type": "function"
    },
    {
      "inputs": [
        {
          "internalType": "uint256",
          "name": "aid",
          "type": "uint256"
        }
      ],
      "name": "getBookings",
      "outputs": [
        {
          "components": [
            {
              "internalType": "uint256",
              "name": "id",
              "type": "uint256"
            },
            {
              "internalType": "uint256",
              "name": "aid",
              "type": "uint256"
            },
            {
              "internalType": "address",
              "name": "tenant",
              "type": "address"
            },
            {
              "internalType": "uint256",
              "name": "date",
              "type": "uint256"
            },
            {
              "internalType": "uint256",
              "name": "price",
              "type": "uint256"
            },
            {
              "internalType": "bool",
              "name": "checked",
              "type": "bool"
            },
            {
              "internalType": "bool",
              "name": "cancelled",
              "type": "bool"
            }
          ],
          "internalType": "struct DappBanX.BookingStruct[]",
          "name": "",
          "type": "tuple[]"
        }
      ],
      "stateMutability": "view",
      "type": "function"
    },
    {
      "inputs": [
        {
          "internalType": "uint256",
          "name": "aid",
          "type": "uint256"
        }
      ],
      "name": "getQualifiedReviewers",
      "outputs": [
        {
          "internalType": "address[]",
          "name": "Tenants",
          "type": "address[]"
        }
      ],
      "stateMutability": "view",
      "type": "function"
    },
    {
      "inputs": [
        {
          "internalType": "uint256",
          "name": "aid",
          "type": "uint256"
        }
      ],
      "name": "getReviews",
      "outputs": [
        {
          "components": [
            {
              "internalType": "uint256",
              "name": "id",
              "type": "uint256"
            },
            {
              "internalType": "uint256",
              "name": "aid",
              "type": "uint256"
            },
            {
              "internalType": "string",
              "name": "reviewText",
              "type": "string"
            },
            {
              "internalType": "uint256",
              "name": "timestamp",
              "type": "uint256"
            },
            {
              "internalType": "address",
              "name": "owner",
              "type": "address"
            }
          ],
          "internalType": "struct DappBanX.ReviewStruct[]",
          "name": "",
          "type": "tuple[]"
        }
      ],
      "stateMutability": "view",
      "type": "function"
    },
    {
      "inputs": [
        {
          "internalType": "uint256",
          "name": "aid",
          "type": "uint256"
        }
      ],
      "name": "getUnavailableDates",
      "outputs": [
        {
          "internalType": "uint256[]",
          "name": "",
          "type": "uint256[]"
        }
      ],
      "stateMutability": "view",
      "type": "function"
    },
    {
      "inputs": [],
      "name": "owner",
      "outputs": [
        {
          "internalType": "address",
          "name": "",
          "type": "address"
        }
      ],
      "stateMutability": "view",
      "type": "function"
    },
    {
      "inputs": [
        {
          "internalType": "uint256",
          "name": "aid",
          "type": "uint256"
        },
        {
          "internalType": "uint256",
          "name": "bookingId",
          "type": "uint256"
        }
      ],
      "name": "refundBooking",
      "outputs": [],
      "stateMutability": "nonpayable",
      "type": "function"
    },
    {
      "inputs": [],
      "name": "renounceOwnership",
      "outputs": [],
      "stateMutability": "nonpayable",
      "type": "function"
    },
    {
      "inputs": [],
      "name": "securityFee",
      "outputs": [
        {
          "internalType": "uint256",
          "name": "",
          "type": "uint256"
        }
      ],
      "stateMutability": "view",
      "type": "function"
    },
    {
      "inputs": [],
      "name": "taxPercent",
      "outputs": [
        {
          "internalType": "uint256",
          "name": "",
          "type": "uint256"
        }
      ],
      "stateMutability": "view",
      "type": "function"
    },
    {
      "inputs": [
        {
          "internalType": "uint256",
          "name": "appartmentId",
          "type": "uint256"
        }
      ],
      "name": "tenantBooked",
      "outputs": [
        {
          "internalType": "bool",
          "name": "",
          "type": "bool"
        }
      ],
      "stateMutability": "view",
      "type": "function"
    },
    {
      "inputs": [
        {
          "internalType": "address",
          "name": "newOwner",
          "type": "address"
        }
      ],
      "name": "transferOwnership",
      "outputs": [],
      "stateMutability": "nonpayable",
      "type": "function"
    },
    {
      "inputs": [
        {
          "internalType": "string",
          "name": "name",
          "type": "string"
        },
        {
          "internalType": "string",
          "name": "description",
          "type": "string"
        },
        {
          "internalType": "string",
          "name": "location",
          "type": "string"
        },
        {
          "internalType": "string",
          "name": "images",
          "type": "string"
        },
        {
          "internalType": "uint256",
          "name": "rooms",
          "type": "uint256"
        },
        {
          "internalType": "uint256",
          "name": "id",
          "type": "uint256"
        },
        {
          "internalType": "uint256",
          "name": "price",
          "type": "uint256"
        }
      ],
      "name": "updateApartment",
      "outputs": [],
      "stateMutability": "nonpayable",
      "type": "function"
    }
  ],
  "bytecode": "0x60806040523480156200001157600080fd5b50604051620034b3380380620034b38339810160408190526200003491620000a2565b6200003f3362000052565b60018055600491909155600355620000c7565b600080546001600160a01b038381166001600160a01b0319831681178455604051919092169283917f8be0079c531659141344cd1fd0a4f28419497f9722a3daafe3b4186f6b6457e09190a35050565b60008060408385031215620000b657600080fd5b505080516020909101519092909150565b6133dc80620000d76000396000f3fe60806040526004361061012a5760003560e01c80639d4a2255116100ab578063d68e13021161006f578063d68e13021461037c578063db2f80b714610392578063df6e0222146103bf578063f2fde38b146103d2578063f4010995146103f2578063f45970c21461041f57600080fd5b80639d4a2255146102955780639f31a2be146102c2578063b1c980991461030d578063c4452e061461032f578063c788d6de1461035c57600080fd5b806367626e5d116100f257806367626e5d146101f4578063715018a6146102145780637541f41c1461022957806378419f611461024d5780638da5cb5b1461026d57600080fd5b8063010b58ee1461012f5780630bb9ce3314610151578063455b30701461018757806355c3fbfb146101b45780635bb0c5d6146101d4575b600080fd5b34801561013b57600080fd5b5061014f61014a366004612ab9565b61043f565b005b34801561015d57600080fd5b5061017161016c366004612adb565b6105e8565b60405161017e9190612af4565b60405180910390f35b34801561019357600080fd5b506101a76101a2366004612ab9565b610791565b60405161017e9190612b8f565b3480156101c057600080fd5b5061014f6101cf366004612adb565b610835565b3480156101e057600080fd5b5061014f6101ef366004612c54565b61091f565b34801561020057600080fd5b5061014f61020f366004612ab9565b610b2a565b34801561022057600080fd5b5061014f610f22565b34801561023557600080fd5b5061023f60045481565b60405190815260200161017e565b34801561025957600080fd5b5061014f610268366004612ab9565b610f36565b34801561027957600080fd5b506000546040516001600160a01b03909116815260200161017e565b3480156102a157600080fd5b506102b56102b0366004612adb565b611188565b60405161017e9190612ce1565b3480156102ce57600080fd5b506102fd6102dd366004612adb565b336000908152600b60209081526040808320938352929052205460ff1690565b604051901515815260200161017e565b34801561031957600080fd5b506103226112c3565b60405161017e9190612e4c565b34801561033b57600080fd5b5061034f61034a366004612adb565b6116a3565b60405161017e9190612eae565b34801561036857600080fd5b5061014f610377366004612ec8565b611977565b34801561038857600080fd5b5061023f60035481565b34801561039e57600080fd5b506103b26103ad366004612adb565b611c94565b60405161017e9190612f87565b61014f6103cd366004612fbf565b611cf6565b3480156103de57600080fd5b5061014f6103ed366004613071565b611fef565b3480156103fe57600080fd5b5061041261040d366004612adb565b612068565b60405161017e919061309a565b34801561042b57600080fd5b5061014f61043a3660046130dc565b612123565b6000828152600560205260409020600701546001600160a01b031633146104a35760405162461bcd60e51b8152602060048201526013602482015272556e617574686f72697a656420656e7469747960681b60448201526064015b60405180910390fd5b60008281526006602052604090208054829081106104c3576104c36131a4565b600091825260209091206005600690920201015460ff161561053a5760405162461bcd60e51b815260206004820152602a60248201527f41706172746d656e7420616c726561647920636865636b65642d696e206f6e206044820152697468697320646174652160b01b606482015260840161049a565b600082815260066020526040812080548390811061055a5761055a6131a4565b9060005260206000209060060201600401549050600060646004548361058091906131d0565b61058a91906131e7565b6000858152600560205260409020600701549091506105bb906001600160a01b03166105b68385613209565b6127dd565b6105d66105d06000546001600160a01b031690565b826127dd565b6105e2336003546127dd565b50505050565b60606000805b600084815260066020526040902054811015610660576000848152600660205260409020805482908110610624576106246131a4565b600091825260209091206005600690920201015460ff161561064e578161064a8161321c565b9250505b806106588161321c565b9150506105ee565b508067ffffffffffffffff81111561067a5761067a612b9d565b6040519080825280602002602001820160405280156106a3578160200160208202803683370190505b5091506000805b6000858152600660205260409020548110156107895760008581526006602052604090208054829081106106e0576106e06131a4565b600091825260209091206005600690920201015460ff161561077757600085815260066020526040902080548290811061071c5761071c6131a4565b60009182526020909120600260069092020101546001600160a01b031684836107448161321c565b945081518110610756576107566131a4565b60200260200101906001600160a01b031690816001600160a01b0316815250505b806107818161321c565b9150506106aa565b505050919050565b610799612a08565b60008381526006602052604090208054839081106107b9576107b96131a4565b60009182526020918290206040805160e08101825260069093029091018054835260018101549383019390935260028301546001600160a01b031690820152600382015460608201526004820154608082015260059091015460ff808216151560a084015261010090910416151560c082015290505b92915050565b60008181526008602052604090205460ff166108895760405162461bcd60e51b8152602060048201526013602482015272105c185c9d1b595b9d081b9bdd08199bdd5b99606a1b604482015260640161049a565b6000818152600560205260409020600701546001600160a01b031633146108e95760405162461bcd60e51b8152602060048201526014602482015273556e617574686f72697a656420656e746974792160601b604482015260640161049a565b6000908152600860209081526040808320805460ff1916905560059091529020600701805460ff60a81b1916600160a81b179055565b60008281526008602052604090205460ff1661097d5760405162461bcd60e51b815260206004820152601860248201527f4170706172746d656e74206e6f7420617661696c61626c650000000000000000604482015260640161049a565b336000908152600b6020908152604080832085845290915290205460ff166109e75760405162461bcd60e51b815260206004820152601860248201527f426f6f6b206669727374206265666f7265207265766965770000000000000000604482015260640161049a565b6000815111610a385760405162461bcd60e51b815260206004820152601b60248201527f52657669657720746578742063616e6e6f7420626520656d7074790000000000604482015260640161049a565b610a736040518060a001604052806000815260200160008152602001606081526020016000815260200160006001600160a01b031681525090565b6020808201849052600084815260079091526040908190205482528101829052610a9b612842565b6060820152336080820152600083815260076020908152604080832080546001818101835591855293839020855160059095020193845591840151918301919091558201518291906002820190610af290826132bd565b5060608201516003820155608090910151600490910180546001600160a01b0319166001600160a01b03909216919091179055505050565b610b32612861565b6000828152600660205260408120805483908110610b5257610b526131a4565b60009182526020918290206040805160e08101825260069093029091018054835260018101549383019390935260028301546001600160a01b031690820152600382015460608201526004820154608082015260059091015460ff80821615801560a085015261010090920416151560c0830152909150610c285760405162461bcd60e51b815260206004820152602a60248201527f41706172746d656e7420616c726561647920636865636b656420696e206f6e206044820152697468697320646174652160b01b606482015260840161049a565b6000838152600a602090815260408083206060850151845290915290205460ff16610c955760405162461bcd60e51b815260206004820152601a60248201527f446964206e6f7420626f6f6b206f6e2074686973206461746521000000000000604482015260640161049a565b6000546001600160a01b03163314610d705780604001516001600160a01b0316336001600160a01b031614610d035760405162461bcd60e51b8152602060048201526014602482015273556e617574686f72697a65642074656e616e742160601b604482015260640161049a565b610d0b612842565b816060015111610d705760405162461bcd60e51b815260206004820152602a60248201527f43616e206e6f206c6f6e67657220726566756e642c20626f6f6b696e672064616044820152691d19481cdd185c9d195960b21b606482015260840161049a565b600083815260066020526040902080546001919084908110610d9457610d946131a4565b6000918252602080832060056006909302019190910180549315156101000261ff001990941693909317909255848152600a82526040808220606085015183528352808220805460ff19169055858252600990925290812054610df990600190613209565b60008581526009602052604081208054929350909183908110610e1e57610e1e6131a4565b9060005260206000200154905080600960008781526020019081526020016000208581548110610e5057610e506131a4565b906000526020600020018190555060096000868152602001908152602001600020805480610e8057610e8061337d565b60019003818190600052602060002001600090559055600060646003548560800151610eac91906131d0565b610eb691906131e7565b90506000610ec56002836131e7565b600088815260056020526040902060070154909150610eed906001600160a01b0316826127dd565b610f026105d06000546001600160a01b031690565b610f103386608001516127dd565b5050505050610f1e60018055565b5050565b610f2a6128ba565b610f346000612914565b565b610f3e612861565b6000828152600660205260408120805483908110610f5e57610f5e6131a4565b60009182526020918290206040805160e08101825260069093029091018054835260018101549383019390935260028301546001600160a01b0316908201819052600383015460608301526004830154608083015260059092015460ff808216151560a084015261010090910416151560c0820152915033146110195760405162461bcd60e51b8152602060048201526013602482015272556e617574686f72697a656420456e7469747960681b604482015260640161049a565b8060a001511561107b5760405162461bcd60e51b815260206004820152602760248201527f41706172746d656e7420616c726561647920636865636b6564206f6e207468696044820152667320646174652160c81b606482015260840161049a565b60008381526006602052604090208054600191908490811061109f5761109f6131a4565b60009182526020808320600560069093020191909101805493151560ff19948516179055338252600b815260408083208784529091528120805490921660011790915560045460808301516064916110f6916131d0565b61110091906131e7565b905060006064600354846080015161111891906131d0565b61112291906131e7565b6000868152600560205260409020600701546080850151919250611157916001600160a01b03909116906105b6908590613209565b61117261116c6000546001600160a01b031690565b836127dd565b61117c33826127dd565b505050610f1e60018055565b606060076000838152602001908152602001600020805480602002602001604051908101604052809291908181526020016000905b828210156112b857838290600052602060002090600502016040518060a0016040529081600082015481526020016001820154815260200160028201805461120490613235565b80601f016020809104026020016040519081016040528092919081815260200182805461123090613235565b801561127d5780601f106112525761010080835404028352916020019161127d565b820191906000526020600020905b81548152906001019060200180831161126057829003601f168201915b505050918352505060038201546020808301919091526004909201546001600160a01b031660409091015290825260019290920191016111bd565b505050509050919050565b6060600060015b600254811161131357600081815260056020526040902060070154600160a81b900460ff1661130157816112fd8161321c565b9250505b8061130b8161321c565b9150506112ca565b508067ffffffffffffffff81111561132d5761132d612b9d565b60405190808252806020026020018201604052801561136657816020015b611353612a52565b81526020019060019003908161134b5790505b509150600060015b600254811161169d57600081815260056020526040902060070154600160a81b900460ff1661168b576005600082815260200190815260200160002060405180610160016040529081600082015481526020016001820180546113d090613235565b80601f01602080910402602001604051908101604052809291908181526020018280546113fc90613235565b80156114495780601f1061141e57610100808354040283529160200191611449565b820191906000526020600020905b81548152906001019060200180831161142c57829003601f168201915b5050505050815260200160028201805461146290613235565b80601f016020809104026020016040519081016040528092919081815260200182805461148e90613235565b80156114db5780601f106114b0576101008083540402835291602001916114db565b820191906000526020600020905b8154815290600101906020018083116114be57829003601f168201915b505050505081526020016003820180546114f490613235565b80601f016020809104026020016040519081016040528092919081815260200182805461152090613235565b801561156d5780601f106115425761010080835404028352916020019161156d565b820191906000526020600020905b81548152906001019060200180831161155057829003601f168201915b5050505050815260200160048201805461158690613235565b80601f01602080910402602001604051908101604052809291908181526020018280546115b290613235565b80156115ff5780601f106115d4576101008083540402835291602001916115ff565b820191906000526020600020905b8154815290600101906020018083116115e257829003601f168201915b5050509183525050600582015460208201526006820154604082015260078201546001600160a01b038116606083015260ff600160a01b8204811615156080840152600160a81b90910416151560a082015260089091015460c0909101528451859084908110611671576116716131a4565b602002602001018190525081806116879061321c565b9250505b806116958161321c565b91505061136e565b50505090565b6116ab612a52565b6005600083815260200190815260200160002060405180610160016040529081600082015481526020016001820180546116e490613235565b80601f016020809104026020016040519081016040528092919081815260200182805461171090613235565b801561175d5780601f106117325761010080835404028352916020019161175d565b820191906000526020600020905b81548152906001019060200180831161174057829003601f168201915b5050505050815260200160028201805461177690613235565b80601f01602080910402602001604051908101604052809291908181526020018280546117a290613235565b80156117ef5780601f106117c4576101008083540402835291602001916117ef565b820191906000526020600020905b8154815290600101906020018083116117d257829003601f168201915b5050505050815260200160038201805461180890613235565b80601f016020809104026020016040519081016040528092919081815260200182805461183490613235565b80156118815780601f1061185657610100808354040283529160200191611881565b820191906000526020600020905b81548152906001019060200180831161186457829003601f168201915b5050505050815260200160048201805461189a90613235565b80601f01602080910402602001604051908101604052809291908181526020018280546118c690613235565b80156119135780601f106118e857610100808354040283529160200191611913565b820191906000526020600020905b8154815290600101906020018083116118f657829003601f168201915b5050509183525050600582015460208201526006820154604082015260078201546001600160a01b038116606083015260ff600160a01b8204811615156080840152600160a81b90910416151560a082015260089091015460c09091015292915050565b60008651116119bf5760405162461bcd60e51b81526020600482015260146024820152734e616d652063616e6e6f7420626520656d70747960601b604482015260640161049a565b6000855111611a105760405162461bcd60e51b815260206004820152601b60248201527f4465736372697074696f6e2063616e6e6f7420626520656d7074790000000000604482015260640161049a565b6000845111611a5c5760405162461bcd60e51b81526020600482015260186024820152774c6f636174696f6e2063616e6e6f7420626520656d70747960401b604482015260640161049a565b6000835111611aa65760405162461bcd60e51b8152602060048201526016602482015275496d616765732063616e6e6f7420626520656d70747960501b604482015260640161049a565b60008211611af15760405162461bcd60e51b8152602060048201526018602482015277526f6f6d65732063616e6e6f74206265207a65726f28302960401b604482015260640161049a565b60008111611b3b5760405162461bcd60e51b815260206004820152601760248201527650726963652063616e6e6f74206265207a65726f28302960481b604482015260640161049a565b611b49600280546001019055565b611b51612a52565b60025481526020810187905260408101869052606081018590526080810184905260a0810183905260c081018290523360e0820152611b8e612842565b61014082015280516000908152600860209081526040808320805460ff191660019081179091558451845260058352922083518155908301518392820190611bd690826132bd565b5060408201516002820190611beb90826132bd565b5060608201516003820190611c0090826132bd565b5060808201516004820190611c1590826132bd565b5060a0820151600582015560c0820151600682015560e08201516007820180546101008501516101208601511515600160a81b0260ff60a81b19911515600160a01b026001600160a81b03199093166001600160a01b039095169490941791909117169190911790556101409091015160089091015550505050505050565b600081815260096020908152604091829020805483518184028101840190945280845260609392830182828015611cea57602002820191906000526020600020905b815481526020019060010190808311611cd6575b50505050509050919050565b80516000838152600560205260408120600601549091611d15916131d0565b90506000606460035483611d2991906131d0565b611d3391906131e7565b60008581526008602052604090205490915060ff16611d8b5760405162461bcd60e51b815260206004820152601460248201527341706172746d656e74206e6f7420666f756e642160601b604482015260640161049a565b611d958183613393565b341015611de45760405162461bcd60e51b815260206004820152601b60248201527f496e73756666696369656e742066756e6420737570706c696564210000000000604482015260640161049a565b611dee8484612964565b611e3a5760405162461bcd60e51b815260206004820181905260248201527f4f6e65206f72206d6f7265206461746573206e6f7420617661696c61626c6521604482015260640161049a565b60005b8351811015611fe857611e4e612a08565b600086815260066020908152604091829020548352820187905233908201528451859083908110611e8157611e816131a4565b60209081029190910181015160608301908152600088815260058084526040808320600690810154608088019081528c85528187528285208054600181810183559187528887208a51919094029093019283558888015190830155828801516002830180546001600160a01b039092166001600160a01b0319909216919091179055945160038201559351600485015560a086015193909101805460c087015115156101000261ff00199515159590951661ffff199091161793909317909255888152600990925290208551869084908110611f5f57611f5f6131a4565b602090810291909101810151825460018181018555600094855283852090910191909155888352600a90915260408220875191929091889086908110611fa757611fa76131a4565b6020026020010151815260200190815260200160002060006101000a81548160ff021916908315150217905550508080611fe09061321c565b915050611e3d565b5050505050565b611ff76128ba565b6001600160a01b03811661205c5760405162461bcd60e51b815260206004820152602660248201527f4f776e61626c653a206e6577206f776e657220697320746865207a65726f206160448201526564647265737360d01b606482015260840161049a565b61206581612914565b50565b606060066000838152602001908152602001600020805480602002602001604051908101604052809291908181526020016000905b828210156112b85760008481526020908190206040805160e08101825260068602909201805483526001808201548486015260028201546001600160a01b03169284019290925260038101546060840152600481015460808401526005015460ff808216151560a085015261010090910416151560c0830152908352909201910161209d565b60008281526008602052604090205460ff166121775760405162461bcd60e51b8152602060048201526013602482015272105c185c9d1b595b9d081b9bdd08199bdd5b99606a1b604482015260640161049a565b6000828152600560205260409020600701546001600160a01b031633146121f35760405162461bcd60e51b815260206004820152602a60248201527f556e617574686f72697a656420706572736f6e6e656c2c206f776e6572206f6e6044820152691b1e48185b1b1bddd95960b21b606482015260840161049a565b600087511161223b5760405162461bcd60e51b81526020600482015260146024820152734e616d652063616e6e6f7420626520656d70747960601b604482015260640161049a565b600086511161228c5760405162461bcd60e51b815260206004820152601b60248201527f4465736372697074696f6e2063616e6e6f7420626520656d7074790000000000604482015260640161049a565b60008551116122d85760405162461bcd60e51b81526020600482015260186024820152774c6f636174696f6e2063616e6e6f7420626520656d70747960401b604482015260640161049a565b60008451116123225760405162461bcd60e51b8152602060048201526016602482015275496d616765732063616e6e6f7420626520656d70747960501b604482015260640161049a565b6000831161236d5760405162461bcd60e51b8152602060048201526018602482015277526f6f6d65732063616e6e6f74206265207a65726f28302960401b604482015260640161049a565b600081116123b75760405162461bcd60e51b815260206004820152601760248201527650726963652063616e6e6f74206265207a65726f28302960481b604482015260640161049a565b60006005600084815260200190815260200160002060405180610160016040529081600082015481526020016001820180546123f290613235565b80601f016020809104026020016040519081016040528092919081815260200182805461241e90613235565b801561246b5780601f106124405761010080835404028352916020019161246b565b820191906000526020600020905b81548152906001019060200180831161244e57829003601f168201915b5050505050815260200160028201805461248490613235565b80601f01602080910402602001604051908101604052809291908181526020018280546124b090613235565b80156124fd5780601f106124d2576101008083540402835291602001916124fd565b820191906000526020600020905b8154815290600101906020018083116124e057829003601f168201915b5050505050815260200160038201805461251690613235565b80601f016020809104026020016040519081016040528092919081815260200182805461254290613235565b801561258f5780601f106125645761010080835404028352916020019161258f565b820191906000526020600020905b81548152906001019060200180831161257257829003601f168201915b505050505081526020016004820180546125a890613235565b80601f01602080910402602001604051908101604052809291908181526020018280546125d490613235565b80156126215780601f106125f657610100808354040283529160200191612621565b820191906000526020600020905b81548152906001019060200180831161260457829003601f168201915b5050505050815260200160058201548152602001600682015481526020016007820160009054906101000a90046001600160a01b03166001600160a01b03166001600160a01b031681526020016007820160149054906101000a900460ff161515151581526020016007820160159054906101000a900460ff161515151581526020016008820154815250509050878160200181905250868160400181905250858160600181905250848160800181905250838160a0018181525050818160c001818152505080600560008360000151815260200190815260200160002060008201518160000155602082015181600101908161271e91906132bd565b506040820151600282019061273390826132bd565b506060820151600382019061274890826132bd565b506080820151600482019061275d90826132bd565b5060a0820151600582015560c0820151600682015560e08201516007820180546101008501516101208601511515600160a81b0260ff60a81b19911515600160a01b026001600160a81b03199093166001600160a01b03909516949094179190911716919091179055610140909101516008909101555050505050505050565b6000826001600160a01b03168260405160006040518083038185875af1925050503d806000811461282a576040519150601f19603f3d011682016040523d82523d6000602084013e61282f565b606091505b505090508061283d57600080fd5b505050565b6000612850426103e86131d0565b61285c906103e8613393565b905090565b6002600154036128b35760405162461bcd60e51b815260206004820152601f60248201527f5265656e7472616e637947756172643a207265656e7472616e742063616c6c00604482015260640161049a565b6002600155565b6000546001600160a01b03163314610f345760405162461bcd60e51b815260206004820181905260248201527f4f776e61626c653a2063616c6c6572206973206e6f7420746865206f776e6572604482015260640161049a565b600080546001600160a01b038381166001600160a01b0319831681178455604051919092169283917f8be0079c531659141344cd1fd0a4f28419497f9722a3daafe3b4186f6b6457e09190a35050565b60006001815b8351811015612a005760005b6000868152600960205260409020548110156129ed5760008681526009602052604090208054829081106129ac576129ac6131a4565b90600052602060002001548583815181106129c9576129c96131a4565b6020026020010151036129db57600092505b806129e58161321c565b915050612976565b50806129f88161321c565b91505061296a565b505092915050565b6040518060e00160405280600081526020016000815260200160006001600160a01b0316815260200160008152602001600081526020016000151581526020016000151581525090565b6040518061016001604052806000815260200160608152602001606081526020016060815260200160608152602001600081526020016000815260200160006001600160a01b03168152602001600015158152602001600015158152602001600081525090565b60008060408385031215612acc57600080fd5b50508035926020909101359150565b600060208284031215612aed57600080fd5b5035919050565b6020808252825182820181905260009190848201906040850190845b81811015612b355783516001600160a01b031683529284019291840191600101612b10565b50909695505050505050565b80518252602080820151908301526040808201516001600160a01b031690830152606080820151908301526080808201519083015260a08082015115159083015260c0908101511515910152565b60e0810161082f8284612b41565b634e487b7160e01b600052604160045260246000fd5b604051601f8201601f1916810167ffffffffffffffff81118282101715612bdc57612bdc612b9d565b604052919050565b600082601f830112612bf557600080fd5b813567ffffffffffffffff811115612c0f57612c0f612b9d565b612c22601f8201601f1916602001612bb3565b818152846020838601011115612c3757600080fd5b816020850160208301376000918101602001919091529392505050565b60008060408385031215612c6757600080fd5b82359150602083013567ffffffffffffffff811115612c8557600080fd5b612c9185828601612be4565b9150509250929050565b6000815180845260005b81811015612cc157602081850181015186830182015201612ca5565b506000602082860101526020601f19601f83011685010191505092915050565b60006020808301818452808551808352604092508286019150828160051b87010184880160005b83811015612d7157603f19898403018552815160a0815185528882015189860152878201518189870152612d3e82870182612c9b565b606084810151908801526080938401516001600160a01b0316939096019290925250509386019390860190600101612d08565b509098975050505050505050565b6000610160825184526020830151816020860152612d9f82860182612c9b565b91505060408301518482036040860152612db98282612c9b565b91505060608301518482036060860152612dd38282612c9b565b91505060808301518482036080860152612ded8282612c9b565b91505060a083015160a085015260c083015160c085015260e0830151612e1e60e08601826001600160a01b03169052565b5061010083810151151590850152610120808401511515908501526101409283015192909301919091525090565b6000602080830181845280855180835260408601915060408160051b870101925083870160005b82811015612ea157603f19888603018452612e8f858351612d7f565b94509285019290850190600101612e73565b5092979650505050505050565b602081526000612ec16020830184612d7f565b9392505050565b60008060008060008060c08789031215612ee157600080fd5b863567ffffffffffffffff80821115612ef957600080fd5b612f058a838b01612be4565b97506020890135915080821115612f1b57600080fd5b612f278a838b01612be4565b96506040890135915080821115612f3d57600080fd5b612f498a838b01612be4565b95506060890135915080821115612f5f57600080fd5b50612f6c89828a01612be4565b9350506080870135915060a087013590509295509295509295565b6020808252825182820181905260009190848201906040850190845b81811015612b3557835183529284019291840191600101612fa3565b60008060408385031215612fd257600080fd5b8235915060208084013567ffffffffffffffff80821115612ff257600080fd5b818601915086601f83011261300657600080fd5b81358181111561301857613018612b9d565b8060051b9150613029848301612bb3565b818152918301840191848101908984111561304357600080fd5b938501935b8385101561306157843582529385019390850190613048565b8096505050505050509250929050565b60006020828403121561308357600080fd5b81356001600160a01b0381168114612ec157600080fd5b6020808252825182820181905260009190848201906040850190845b81811015612b35576130c9838551612b41565b9284019260e092909201916001016130b6565b600080600080600080600060e0888a0312156130f757600080fd5b873567ffffffffffffffff8082111561310f57600080fd5b61311b8b838c01612be4565b985060208a013591508082111561313157600080fd5b61313d8b838c01612be4565b975060408a013591508082111561315357600080fd5b61315f8b838c01612be4565b965060608a013591508082111561317557600080fd5b506131828a828b01612be4565b979a969950949760808101359660a0820135965060c090910135945092505050565b634e487b7160e01b600052603260045260246000fd5b634e487b7160e01b600052601160045260246000fd5b808202811582820484141761082f5761082f6131ba565b60008261320457634e487b7160e01b600052601260045260246000fd5b500490565b8181038181111561082f5761082f6131ba565b60006001820161322e5761322e6131ba565b5060010190565b600181811c9082168061324957607f821691505b60208210810361326957634e487b7160e01b600052602260045260246000fd5b50919050565b601f82111561283d57600081815260208120601f850160051c810160208610156132965750805b601f850160051c820191505b818110156132b5578281556001016132a2565b505050505050565b815167ffffffffffffffff8111156132d7576132d7612b9d565b6132eb816132e58454613235565b8461326f565b602080601f83116001811461332057600084156133085750858301515b600019600386901b1c1916600185901b1785556132b5565b600085815260208120601f198616915b8281101561334f57888601518255948401946001909101908401613330565b508582101561336d5787850151600019600388901b60f8161c191681555b5050505050600190811b01905550565b634e487b7160e01b600052603160045260246000fd5b8082018082111561082f5761082f6131ba56fea2646970667358221220a03826d656332426efe7863ab622eaf609aeb77aa7590334216922bf1d9b6c6064736f6c63430008130033",
  "linkReferences": {},
  "deployedLinkReferences": {}
}